:100000000C9488040C94B0040C94B0040C94B004C8
:100010000C94B0040C94B0040C94B0040C94B00490
:100020000C94B0040C94B0040C94B0040C94B00480
:100030000C94B0040C94B0040C94B0040C94B00470
:100040000C9410120C94B0040C94DE120C94B812A0
:100050000C94B0040C94B0040C94B0040C94B00450
:100060000C9449060C94B00420202020202020204D
:100070000041004D003000310053544F50200053D8
:10008000544152540041555420004D414E200056D9
:10009000595020005A4150200020202020202020AC
:1000A000474D41494C2E434F4D0042435345444C2C
:1000B0004F4E4000454D41494C202000202020203B
:1000C0002020200053544F502000535441525400DC
:1000D00000000000240027002A0000000000250086
:1000E00028002B0000000000230026002900040443
:1000F00004040404040402020202020203030303D0
:1001000003030102040810204080010204081020AB
:100110000102040810200000000800020100000392
:1001200004070000000000000000025A41502100B6
:10013000000000000000000000000156595021009E
:1001400000000000000000000000004155544F2155
:1001500000000000000000000000015A41500000B3
:100160000000000000000000000000565950000090
:10017000000000000000000000004A013A012A01CE
:100180006A015A01E402037A01E502028001E602F3
:10019000037A01E702028001E802037A01E9020220
:1001A0008001EA02037A01EB0202800109000000EB
:1001B00000000000008401C80002000000000000F0
:1001C0000000EC02F400020000000000000000EE5D
:1001D00002DC00020000000000000000F002E0006D
:1001E000020000000000000000F202E40002000033
:1001F000000000000000F402D00002000000000037
:10020000000000F602D40002000000000000000020
:10021000F802D800040000000000000000FA02EC20
:10022000000900000000000000008901CC00090066
:10023000000000000000008E018C000200000000A1
:1002400000000000FE02B8000200000000000000F4
:10025000000003A0000200000000000000000203F4
:10026000A4000200000000000000000403A8000237
:1002700000000000000000000603940002000000DF
:1002800000000000000803980002000000000000C9
:1002900000000A039C000400000000000000000CA5
:1002A00003B000090000000000000000930190006E
:1002B000090000000000000000980150000200004A
:1002C00000000000000010037C000200000000009D
:1002D00000000012036400020000000000000000A3
:1002E0001403680002000000000000000016036C08
:1002F0000002000000000000000018035800020087
:10030000000000000000001A035C00020000000072
:10031000000000001C03600004000000000000005A
:10032000001E0374000900000000000000009D0191
:100330005400090000000000000000A201140002A7
:100340000000000000000000220340000200000046
:10035000000000000024032800020000000000004C
:10036000000026032C00020000000000000000280E
:100370000330000200000000000000002A031C00FF
:100380000200000000000000002C0320000200001A
:100390000000000000002E03240004000000000004
:1003A00000000030033800090000000000000000D9
:1003B000A7011800442052454C453A0000000000B7
:1003C000000000000100AC0144204F464653455454
:1003D0003A205B5345435D000100B9014420565962
:1003E000503A202020205B484F445D000100C601A8
:1003F00044205659503A202020205B4D494E5D0044
:100400000100D30144205659503A092020205B5363
:1004100045435D000100E00144205A41503A20204C
:1004200020205B484F445D000100ED0144205A410B
:10043000503A202020205B4D494E5D000100FA011A
:1004400044205A41503A202020205B5345435D0010
:10045000010007024420504F4345542043594B4C60
:10046000553A2000010014024420565943484F5A7F
:10047000493A0000000000000100210243205245DB
:100480004C453A00000000000000000001002E0270
:1004900043204F46465345543A205B5345435D0045
:1004A00001003B0243205659503A202020205B484F
:1004B0004F445D000100480243205659503A202025
:1004C00020205B4D494E5D000100550243205659E6
:1004D000503A092020205B5345435D000100620231
:1004E00043205A41503A202020205B484F445D0071
:1004F00001006F0243205A41503A202020205B4DDA
:10050000494E5D0001007C0243205A41503A2020B0
:1005100020205B5345435D00010089024320504F7A
:100520004345542043594B4C553A20000100960254
:100530004320565943484F5A493A000000000000F2
:100540000100A302422052454C453A000000000041
:10055000000000000100B00242204F4646534554BF
:100560003A205B5345435D000100BD0242205659CD
:10057000503A202020205B484F445D000100CA0211
:1005800042205659503A202020205B4D494E5D00B4
:100590000100D70242205659503A092020205B53CF
:1005A00045435D000100E40242205A41503A2020B8
:1005B00020205B484F445D000100F10242205A4177
:1005C000503A202020205B4D494E5D000100FE0284
:1005D00042205A41503A202020205B5345435D0081
:1005E00001000B034220504F4345542043594B4CCC
:1005F000553A2000010018034220565943484F5AEB
:10060000493A000000000000010025034120524546
:100610004C453A00000000000000000001003203D9
:1006200041204F46465345543A205B5345435D00B5
:1006300001003F0341205659503A202020205B48BA
:100640004F445D0001004C0341205659503A202090
:1006500020205B4D494E5D00010059034120565951
:10066000503A092020205B5345435D00010066039A
:1006700041205A41503A202020205B484F445D00E1
:100680000100730341205A41503A202020205B4D45
:10069000494E5D000100800341205A41503A20201C
:1006A00020205B5345435D0001008D034120504FE6
:1006B0004345542043594B4C553A200001009A03BE
:1006C0004120565943484F5A493A00000000000063
:1006D0000100A7036804540440042C041804040413
:1006E000F003DC03C803B40330051C050805F4045B
:1006F000E004CC04B804A40490047C04F805E405E8
:10070000D005BC05A805940580056C055805440571
:10071000C006AC069806840670065C0648063406D9
:1007200020060C064E4153542054455354210000DA
:10073000000000000200450B4E4153542031352F7C
:1007400031304D210000000002000D0C4E41535489
:1007500020312F312F312F314D2100000200D10CDB
:1007600044204E4153544156454E492D3E00000011
:10077000000AD40643204E4153544156454E492D5C
:100780003E000000000AE80642204E415354415604
:10079000454E492D3E000000000AFC0641204E4116
:1007A00053544156454E492D3E000000000A1007A3
:1007B0005245534554210000000000000000000095
:1007C0000200740953544F50210000000000000043
:1007D0000000000002003205535441525421000031
:1007E000000000000000000002003805D807C40720
:1007F000B0079C078807740760074C073807240771
:10080000524F4F54000000000000000000000000A4
:10081000000AEC0700407A10F35A00A0724E180943
:100820000010A5D4E80000E87648170000E40B5457
:10083000020000CA9A3B000000E1F5050000809626
:100840009800000040420F000000A0860100000058
:10085000102700000000E803000000006400000012
:1008600000000A00000000000100000000002C76DB
:10087000D888DC674F0823DFC1DFAE59E1B1B796F6
:10088000E5E3E453C63AE651997696E8E6C2842653
:10089000EB898C9B62ED407C6FFCEFBC9C9F40F22F
:1008A000BAA56FA5F490055A2AF75C936B6CF967AB
:1008B0006DC11BFCE0E40D47FEF520E6B500D0ED70
:1008C000902E0300943577050080841E08000020D8
:1008D0004E0A000000C80C333333330F986E128376
:1008E0001141EF8D2114893BE65516CFFEE6DB184A
:1008F000D1844B381BF77C1D901DA4BBE42420320F
:1009000084725E228100C9F124ECA1E53D27BC2759
:1009100011241FBECFEFD8E0DEBFCDBF11E0A0E0B5
:10092000B1E0E6ECFCE502C005900D92A43CB107F5
:10093000D9F724E0A4ECB1E001C01D92A83CB207B5
:10094000E1F714E0C8E8D4E004C02197FE010E945A
:100950002D29C738D107C9F70E947C200C94612E3D
:100960000C94000085ED8093BC008091BC0084FD58
:10097000FCCF10923302089581E08093860280912B
:100980007B0290917C02A0917D02B0917E02892B26
:100990008A2B8B2B41F481E09091EB02911101C0E5
:1009A00080E0809383028091710290917202A09105
:1009B0007302B0917402892B8A2B8B2B41F481E056
:1009C0009091E902911101C080E0809379028091B9
:1009D000670290916802A0916902B0916A02892B26
:1009E0008A2B8B2B41F481E09091E702911101C099
:1009F00080E080936F0280915D0290915E02A091F1
:100A00005F02B0916002892B8A2B8B2B41F481E02D
:100A10009091E502911101C080E0809365020895F4
:100A2000089542E00C944B1841E00C944B18CF937E
:100A3000DF93EC0161E08FEA94E00E947617EBE32C
:100A4000FFE13197F1F760E080E00E94971ECE0150
:100A50000E94921E64EF71E080E090E0DF91CF9100
:100A60000C94371E1092860282E791E00C941705D1
:100A70000E94BC048CE791E00C941705CF92DF92A2
:100A8000EF92FF920F931F93CF93DF931F92CDB7F7
:100A9000DEB78C01D62E7901E091AF04F091B0045D
:100AA0000084F185E02D6FEF8FEA94E0498309958A
:100AB0006D2D4981842F0E94971E6801C601801BFD
:100AC000910B8E159F056CF4F60161916F018FED0E
:100AD000860F8E3508F060E28FEA94E00E94521390
:100AE000EDCF0F90DF91CF911F910F91FF90EF907D
:100AF000DF90CF9008952091E0029091E2022132A0
:100B000008F04AC0809133028111FCCF32E030936B
:100B1000330231E0309332023FEF309331021092D2
:100B2000300220932F02A4E3B2E04FE052E0FA013A
:100B30003E2F341B321718F43D913193F9CF1092A8
:100B40000E0220910E02990F922B90930E0290911B
:100B50000D02913061F410920D0290910E0290936B
:100B6000BB009091BC0093FDF8CF95EC01C095EED1
:100B70009093BC00909133029230E1F39091310256
:100B80009F3F79F080913102803241F080913102B3
:100B9000803331F084E005C081E003C082E001C011
:100BA00083E01092E1021092E0021092E3020895B5
:100BB000809133028111FCCF842F413208F080E212
:100BC00091E090933302909332022FEF2093310201
:100BD00010923002280F20932F0290930E029091D2
:100BE0000E02660F692B60930E0290910D029130F8
:100BF00061F410920D0290910E029093BB009091BF
:100C0000BC0093FDF8CF95EC01C095EE9093BC002D
:100C1000909133029130E1F390913002981710F4E3
:100C200080913002AFE0B2E02EEB32E0F9019E2F6E
:100C3000921B981718F49D919193F9CF1092DF02AF
:100C40008093DE0208951092DF021092DE0210926D
:100C5000E1021092E0021092330281E080933202AE
:100C600010920D0261E082E10E94CB1D61E083E100
:100C70000E94CB1DE9EBF0E080818E7F8083808134
:100C80008D7F808388E48093B80085E48093BC00E6
:100C900008951F920F920FB60F9211242F933F9336
:100CA0004F935F936F937F938F939F93AF93BF9374
:100CB000EF93FF938091B900887F803609F49CC040
:100CC00068F5883209F45BC090F4803109F454C0AF
:100CD00038F4882309F4F6C0883009F44DC0F6C012
:100CE000883109F44CC0803209F45DC0EFC0803413
:100CF00009F468C048F4803309F455C0883309F01A
:100D0000E5C080933102D8C0803509F44FC08835E2
:100D100009F45DC0883409F0D9C0D6C0883909F417
:100D2000C7C0A8F4883709F467C038F4883609F4D6
:100D300063C0803709F460C0C9C0883809F4B8C0FE
:100D4000803909F45FC0803809F0C0C05BC0803BC7
:100D500009F486C038F4803A09F466C0883A09F488
:100D60007FC0B4C0803C09F4A7C0883C09F4A4C08B
:100D7000883B09F48AC0AAC080910E0210C09091ED
:100D8000300280912F02981770F5E091300281E0D7
:100D90008E0F80933002F0E0E15FFD4F8081809301
:100DA000BB0085EC86C0809331028EC0E09130029A
:100DB00081E08E0F809330028091BB00F0E0E15F14
:100DC000FD4F80839091300280912F026EC0E091A0
:100DD000300281E08E0F809330028091BB00F0E002
:100DE000E15FFD4F80838091320281116DC081E00F
:100DF00080930D0284EA61C083E0809333021092F5
:100E00000C02CFCF80910C02803208F051C0E091EB
:100E10000C0281E08E0F80930C028091BB00F0E009
:100E2000E451FE4F8083BDCF85EC8093BC001092CF
:100E3000330280910C02803230F4E0910C02F0E039
:100E4000E451FE4F108260910C0270E0E091EA01E3
:100E5000F091EB018CEE91E0099510920C0236C0F6
:100E600084E0809333021092E9011092E801E0914E
:100E7000E601F091E70109958091E801811105C033
:100E800081E08093E8011092C601E091E90181E0E0
:100E90008E0F8093E901F0E0EA53FE4F808180934A
:100EA000BB009091E9018091E801981708F479CF8F
:100EB00085E88093BC000AC085EC8093BC0010924A
:100EC000330204C0109231020E94B204FF91EF91EC
:100ED000BF91AF919F918F917F916F915F914F9152
:100EE0003F912F910F900FBE0F901F90189540913A
:100EF000E801262F30E0240F311D21323105DCF4CA
:100F0000209133022430C9F4FC0180E090E0861780
:100F100058F43091E8012191DC01AA53BE4FA30F90
:100F2000B11D2C930196F3CF8091E801680F609377
:100F3000E80180E0089581E0089582E00895CF936C
:100F4000DF931F92CDB7DEB769832091E30222239E
:100F5000D1F02091E002203240F021E030E0FC01AD
:100F60003383228380E090E015C08091E102E82F76
:100F7000F0E0EC5CFD4F998190838F5F8093E102FC
:100F80008093E00205C061E0CE0101960E947707E0
:100F900081E090E00F90DF91CF91089542E00C94B2
:100FA000721841E00C9472186AEE72E084E190E0ED
:100FB0000E94D10765E872E084E390E00E94D107C7
:100FC0006BEE72E088E190E00E94D10744E060E3BC
:100FD00073E088E390E00E9472186AE273E08CE1AB
:100FE00090E00E94CE076CE273E080E290E00E9405
:100FF000CE076EE273E084E290E00E94CE0764E2E6
:1010000073E088E290E00E94CE0766E273E08CE233
:1010100090E00E94CE0768E273E080E390E00E94D7
:10102000CE0762E273E080E490E00E94CE0768EEB3
:1010300072E080E590E00E94D1076AE772E080E705
:1010400090E00E94D10769EE72E084E590E00E9492
:10105000D10744E06EE173E084E790E00E947218EB
:1010600068E173E088E590E00E94CE076AE173E0F2
:101070008CE590E00E94CE076CE173E080E690E0A2
:101080000E94CE0762E173E084E690E00E94CE0702
:1010900064E173E088E690E00E94CE0766E173E0C9
:1010A0008CE690E00E94CE0760E173E08CE790E070
:1010B0000E94CE0766EE72E08CE890E00E94D107B5
:1010C00060E772E08CEA90E00E94D10767EE72E080
:1010D00080E990E00E94D10744E06CE073E080EB8F
:1010E00090E00E94721866E073E084E990E00E944C
:1010F000CE0768E073E088E990E00E94CE076AE0DE
:1011000073E08CE990E00E94CE0760E073E080EA33
:1011100090E00E94CE0762E073E084EA90E00E94D3
:10112000CE0764E073E088EA90E00E94CE076EEF9D
:1011300072E088EB90E00E94CE0764EE72E088ECEB
:1011400090E00E94D10766E672E088EE90E00E948F
:10115000D10765EE72E08CEC90E00E94D10744E08C
:101160006AEF72E08CEE90E00E94721864EF72E019
:1011700080ED90E00E94CE0766EF72E084ED90E093
:101180000E94CE0768EF72E088ED90E00E94CE07E3
:101190006EEE72E08CED90E00E94CE0760EF72E0A0
:1011A00080EE90E00E94CE0762EF72E084EE90E065
:1011B0000E94CE076CEE72E084EF90E00C94CE07B4
:1011C000662321F081E0623009F080E008951092FA
:1011D0008702109288021092890210928A0210925D
:1011E00084021092860281E0809385029091EB0246
:1011F000911101C080E08093830210927F021092CF
:101200008002109281021092820210927B02109250
:101210007C0210927D0210927E026091EA020E948E
:10122000E0088093580281E080937A029091E9026D
:10123000911101C080E080937902109275021092A2
:101240007602109277021092780210927102109238
:10125000720210927302109274026091E8020E946E
:10126000E0088093570281E0809370029091E7023A
:10127000911101C080E080936F0210926B02109276
:101280006C0210926D0210926E0210926702109220
:1012900068021092690210926A026091E6020E944E
:1012A000E0088093560281E0809366029091E50207
:1012B000911101C080E0809365021092610210924A
:1012C0006202109263021092640210925D02109208
:1012D0005E0210925F02109260026091E4020E942E
:1012E000E0088093550208950E94E70885E891E0A0
:1012F0000C941705CF92DF92EF92FF921092EA02C0
:1013000081E0809385021092EB029CEDC92E95E05E
:10131000D92EE12CF12CC0923003D0923103E0920F
:101320003203F09233032CE330E030932F03209309
:101330002E0344EB50E0509329034093280310926E
:101340002303109222031092270310922603109277
:1013500025031092240310922D0310922C03109257
:101360002B0310922A031092E80280937A02809352
:10137000E902C0921E03D0921F03E0922003F09274
:10138000210330931D0320931C03509317034093B4
:10139000160330931103209310031092150310923B
:1013A0001403109213031092120310921B03109255
:1013B0001A0310921903109218031092E6028093F8
:1013C00070021092E702C0920C03D0920D03E092DB
:1013D0000E03F0920F0348E750E05093050340934B
:1013E000040350930B0340930A03109203031092DB
:1013F000020310920103109200031092090310924D
:10140000080310920703109206033093FF02209303
:10141000FE021092E402809366028093E502C0927D
:10142000FA02D092FB02E092FC02F092FD0250938D
:10143000F3024093F2025093F9024093F8021092A3
:10144000F1021092F0021092EF021092EE0210924E
:10145000F7021092F6021092F5021092F402309305
:10146000ED022093EC02FF90EF90DF90CF900C9470
:10147000D4076AEE72E084E190E00E94140565E80A
:1014800072E084E390E00E9414056BEE72E088E164
:1014900090E00E94140544E060E373E088E390E08C
:1014A0000E944B186AE273E08CE190E00E94110503
:1014B0006CE273E080E290E00E9411056EE273E05E
:1014C00084E290E00E94110564E273E088E290E01B
:1014D0000E94110566E273E08CE290E00E94110523
:1014E00068E273E080E390E00E94110562E273E03D
:1014F00080E490E00E94110568EE72E080E590E0E3
:101500000E9414056AE772E080E790E00E941405EB
:1015100069EE72E084E590E00E94140544E06EE11B
:1015200073E084E790E00E944B1868E173E088E57F
:1015300090E00E9411056AE173E08CE590E00E9462
:1015400011056CE173E080E690E00E94110562E114
:1015500073E084E690E00E94110564E173E088E6A0
:1015600090E00E94110566E173E08CE690E00E9435
:10157000110560E173E08CE790E00E94110566EED2
:1015800072E08CE890E00E94140560E772E08CEA5B
:1015900090E00E94140567EE72E080E990E00E94FE
:1015A000140544E06CE073E080EB90E00E944B187F
:1015B00066E073E084E990E00E94110568E073E062
:1015C00088E990E00E9411056AE073E08CE990E000
:1015D0000E94110560E073E080EA90E00E9411052E
:1015E00062E073E084EA90E00E94110564E073E039
:1015F00088EA90E00E9411056EEF72E088EB90E0BF
:101600000E94110564EE72E088EC90E00E941405DF
:1016100066E672E088EE90E00E94140565EE72E0E6
:101620008CEC90E00E94140544E06AEF72E08CEECE
:1016300090E00E944B1864EF72E080ED90E00E9411
:10164000110566EF72E084ED90E00E94110568EFED
:1016500072E088ED90E00E9411056EEE72E08CED74
:1016600090E00E94110560EF72E080EE90E00E9431
:10167000110562EF72E084EE90E00E9411056CEEBD
:1016800072E084EF90E00C941105CF92DF92EF921C
:10169000FF921092EA0281E0809385021092EB02A1
:1016A00095E0C92ED12CE12CF12CC0923003D092C0
:1016B0003103E0923203F092330326E030E03093BE
:1016C0002F0320932E0342E150E0509329034093CF
:1016D00028031092230310922203109227031092E2
:1016E0002603109225031092240310922D031092CA
:1016F0002C0310922B0310922A031092E80280937D
:101700007A028093E902C0921E03D0921F03E092F6
:101710002003F092210330931D0320931C03509368
:101720001703409316033093110320931003109274
:1017300015031092140310921303109212031092C7
:101740001B0310921A03109219031092180310929F
:10175000E602809370021092E702C0920C03D092CE
:101760000D03E0920E03F0920F034CE050E0509313
:1017700005034093040350930B0340930A03109214
:1017800003031092020310920103109200031092BF
:101790000903109208031092070310920603309376
:1017A000FF022093FE021092E4028093660280936F
:1017B000E502C092FA02D092FB02E092FC02F092A3
:1017C000FD025093F3024093F2025093F9024093CA
:1017D000F8021092F1021092F0021092EF021092B1
:1017E000EE021092F7021092F6021092F502109299
:1017F000F4023093ED022093EC020E94D4070E9481
:10180000390A0E94E7081092860280E991E0FF9071
:10181000EF90DF90CF900C941705CF92DF92EF926C
:10182000FF921092EA0281E0809385021092EB020F
:1018300095E0C92ED12CE12CF12CC0923003D0922E
:101840003103E0923203F09233031092230310929B
:10185000220310922B0310922A032FE030E03093E2
:101860002D0320932C0310922F0310922E0310921D
:101870002503109224034AE050E05093270340933D
:10188000260310922903109228031092E8028093F5
:101890007A028093E902C0921E03D0921F03E09265
:1018A0002003F09221031092110310921003109262
:1018B00019031092180350931B0340931A031092BC
:1018C0001D0310921C031092130310921203309305
:1018D000150320931403109217031092160310920D
:1018E000E602809370021092E702C0920C03D0923D
:1018F0000D03E0920E03F0920F031092FF0210927C
:10190000FE021092070310920603309309032093FE
:10191000080310920B0310920A0310920103109215
:1019200000035093030340930203109205031092A7
:1019300004031092E402809366028093E502C09251
:10194000FA02D092FB02E092FC02F092FD021092A9
:10195000ED021092EC021092F5021092F4025093F4
:10196000F7024093F6021092F9021092F8021092D8
:10197000EF021092EE023093F1022093F0021092E7
:10198000F3021092F2020E94390A0E94E7081092B4
:10199000860280E991E0FF90EF90DF90CF900C9469
:1019A00017050E947A090E94390A0E94E7081092DE
:1019B000860280E991E00C94170588E690E00C948B
:1019C000711E2F923F924F925F926F927F928F92F1
:1019D0009F92AF92BF92CF92DF92EF92FF920F93BE
:1019E0001F93CF93DF9300D0CDB7DEB79A8389835F
:1019F000662E942E722E17012801882021F060E0B7
:101A000080E00E94971E89819A810E94921E811017
:101A100035C08091870280FF08C0809186028823AC
:101A200021F0772011F080E201C08AE30E94D11EEC
:101A3000662019F087E790E002C085E790E00E94F9
:101A4000711E992019F083E790E002C081E790E0D1
:101A50000F900F90DF91CF911F910F91FF90EF901A
:101A6000DF90CF90BF90AF909F908F907F906F90BE
:101A70005F904F903F902F900C94711E80E20E94D7
:101A8000D11E662019F084E990E002C08FE890E052
:101A90000E94711E992019F08AE890E002C085E842
:101AA00090E00E94711E80918602882319F08FE7D2
:101AB00090E002C089E790E00E94711E0E94DD0C58
:101AC00061E080E00E94971E2AE0B201A1018FEA46
:101AD00094E00E946F128091870280FF08C080917D
:101AE0008602882321F0772011F080E201C08AE38A
:101AF0000E94D11E2AE0B601A5018FEA94E00E945F
:101B00006F120E94DD0C0F900F90DF91CF911F910B
:101B10000F91FF90EF90DF90CF90BF90AF909F908C
:101B20008F907F906F905F904F903F902F900C948C
:101B3000DD0C8F92AF92BF92CF92DF92EF92FF9225
:101B40000F931F931092E30380915402813431F478
:101B50008091C4019091C501019707C0823451F46E
:101B60008091C4019091C50101969093C501809325
:101B7000C40106C0833221F41092C5011092C40141
:101B80008091C4019091C50197FF02C080E090E070
:101B90008E30910514F08DE090E09093C501809314
:101BA000C401009709F0A1C060E080E00E94971E88
:101BB00080918602882319F08AEC90E002C084ECC0
:101BC00090E00E94711E8AE991E00E94921EA0900E
:101BD0003003B0903103C0903203D0903303809132
:101BE0007B0290917C02A0917D02B0917E027C01EB
:101BF0008D0116950795F794E794812C2091850225
:101C00004091EA02609158028DE991E00E94E10C56
:101C100080E20E94D11EA0901E03B0901F03C090CE
:101C20002003D09021038091710290917202A091C3
:101C30007302B09174027C018D0116950795F7949B
:101C4000E79420917A024091E802609157028FE96F
:101C500091E00E94E10C61E080E00E94971E8CEB15
:101C600090E00E94711EA0900C03B0900D03C090F4
:101C70000E03D0900F038091670290916802A091AB
:101C80006902B0916A027C018D0116950795F7945F
:101C9000E794209170024091E6026091560281EA39
:101CA00091E00E94E10C80E20E94D11EA090FA0215
:101CB000B090FB02C090FC02D090FD0280915D02CA
:101CC00090915E02A0915F02B09160027C018D0153
:101CD00016950795F794E794209166024091E402E7
:101CE0006091550283EA91E023C08130910519F596
:101CF000A0903003B0903103C0903203D0903303F2
:101D000080917B0290917C02A0917D02B0917E0235
:101D10007C018D0116950795F794E79488248394A8
:101D2000209185024091EA026091580285EA91E093
:101D30000E94E10C47C18230910509F5A0901E0375
:101D4000B0901F03C0902003D090210380917102B6
:101D500090917202A0917302B09174027C018D0186
:101D600016950795F794E7948824839420917A0236
:101D70004091E8026091570288EA91E0D9CF833020
:101D8000910509F5A0900C03B0900D03C0900E03CF
:101D9000D0900F038091670290916802A091690230
:101DA000B0916A027C018D0116950795F794E7942E
:101DB00088248394209170024091E602609156023B
:101DC0008BEA91E0B5CF8430910509F5A090FA0235
:101DD000B090FB02C090FC02D090FD0280915D02A9
:101DE00090915E02A0915F02B09160027C018D0132
:101DF00016950795F794E7948824839420916602BA
:101E00004091E402609155028EEA91E091CF8530D5
:101E10009105A9F4E0907F02F090800220912403C4
:101E200030912503409126035091270360912803A8
:101E30007091290300915C0285EA91E08FC08630A1
:101E40009105A9F4E0907F02F090800220912A038E
:101E500030912B0340912C0350912D0360912E0360
:101E600070912F0300915C0285EA91E090C0873069
:101E70009105A9F4E0907502F0907602209112038A
:101E80003091130340911403509115036091160390
:101E90007091170300915B0288EA91E05FC088307F
:101EA0009105A9F4E0907502F09076022091180354
:101EB0003091190340911A0350911B0360911C0348
:101EC00070911D0300915B0288EA91E060C0893047
:101ED0009105A9F4E0906B02F0906C022091000350
:101EE0003091010340910203509103036091040378
:101EF0007091050300915A028BEA91E02FC08A305D
:101F00009105A9F4E0906B02F0906C022091060319
:101F100030910703409108035091090360910A032F
:101F200070910B0300915A028BEA91E030C08B3024
:101F30009105B9F4E0906102F09062022091EE0206
:101F40003091EF024091F0025091F1026091F20263
:101F50007091F302009159028EEA91E00E94DC1E1A
:101F600031C00C97B9F4E0906102F09062022091C8
:101F7000F4023091F5024091F6025091F70260911F
:101F8000F8027091F902009159028EEA91E00E94E4
:101F9000431F18C060E080E00E94971E84EB90E031
:101FA0000E94711E8AEA90E00E94711E61E080E04A
:101FB0000E94971E61E080E00E94971E89E990E0F0
:101FC0000E94711E109254021F910F91FF90EF908A
:101FD000DF90CF90BF90AF908F900895CF92DF9217
:101FE000EF92FF920F931F93CF93DF93EC010E9428
:101FF000BF158E859F85089791F48C859D850897E0
:1020000011F40E94BC048A859B85089711F41092F4
:10201000860288859985089711F40E94E7086E85E5
:102020007F85888599856430710509F048C04C85A5
:102030005D854830510519F421E02093EA022A8594
:102040003B852830310519F4E2E0E093EA0288305C
:10205000910511F41092EA024430510519F4E1E0BF
:10206000E093E8022430310519F4E2E0E093E8025D
:102070008430910511F41092E8024230510519F4B0
:10208000E1E0E093E6022230310519F4E2E0E0936A
:10209000E6028230910511F41092E60241305105BA
:1020A00019F441E04093E4022130310519F422E0B3
:1020B0002093E4028130910511F41092E4028E0124
:1020C00001581F4F892B51F48A859B85892B31F448
:1020D0008C859D85892B11F4672BB1F1F8018081E6
:1020E0009181A281B381892B8A2B8B2B41F40E9491
:1020F0000412D8016D937D938D939C931397F801EF
:10210000C080D180E280F380F4EFCF0EF1E0DF1EDB
:10211000E11CF11C0E9404126C157D058E059F05C3
:10212000C0F4D801CD90DD90ED90FC90B8ECCB0ED2
:10213000D11CE11CF11C0E940412C616D706E80649
:10214000F90638F480E040C0F80110821182128252
:102150001382CE010E94BF15FE01E25AFF4F60813B
:1021600070E0FE0140E050E08E01015A1F4F46171B
:10217000570744F7D8012C9130E080E090E08217B7
:102180009307F4F4A085B185082E02C0B695A795F3
:102190000A94E2F7A0FF12C0429FB001439F700D66
:1021A000529F700D1124C45ADF4FE881F9818E0FC0
:1021B0009F1FFC01E60FF71F808106C00196DFCF4D
:1021C0004F5F5F4F3296D3CFDF91CF911F910F9129
:1021D000FF90EF90DF90CF900895FC01E35BFF4FFD
:1021E000808191810E94EE0F813461F0823469F028
:1021F000843471F0833279F08A3281F0082E000C39
:10220000990B089583E090E0089584E090E00895AC
:1022100081E090E0089582E090E0089585E090E00C
:102220000895CF92DF92EF92FF920F931F93CF9377
:10223000DF936C017A018B01C0E0D0E0CE15DF05A1
:1022400089F0D8016D918D01D601ED91FC9101903D
:10225000F081E02DC6010995892B11F47E0102C0A1
:102260002196ECCFC701DF91CF911F910F91FF9085
:10227000EF90DF90CF900895FC01918D828D98179B
:1022800061F0828DDF01A80FB11D5D968C91928D5A
:102290009F5F9F73928F90E008958FEF9FEF089557
:1022A000FC01918D828D981731F0828DE80FF11D20
:1022B000858D90E008958FEF9FEF0895FC01918D3B
:1022C000228D892F90E0805C9F4F821B91098F7334
:1022D0009927089584E393E00E945E1121E0892B01
:1022E00009F420E0822F08950E944A2BEF92FF927A
:1022F0000F931F93CF93DF93EC0181E0888F9B8D29
:102300008C8D981305C0E889F989808185FD24C0EA
:10231000F62E0B8D10E00F5F1F4F0F731127E02E6D
:102320008C8DE8120CC00FB607FCFACFE889F9894A
:10233000808185FFF5CFCE010E949E15F1CF8B8D58
:10234000FE01E80FF11DE35AFF4FF0820B8FEA897F
:10235000FB898081806207C0EE89FF896083E889FC
:10236000F98980818064808381E090E0DF91CF9162
:102370001F910F91FF90EF900895CF93DF93EC01A1
:10238000888D8823C9F0EA89FB89808185FD05C095
:10239000A889B9898C9186FD0FC00FB607FCF5CFCF
:1023A000808185FFF2CFA889B9898C9185FFEDCF17
:1023B000CE010E949E15E7CFDF91CF9108953FB7E0
:1023C000F8948091BA029091BB02A091BC02B091A6
:1023D000BD0226B5A89B05C02F3F19F00196A11D8F
:1023E000B11D3FBFBA2FA92F982F8827820F911DAB
:1023F000A11DB11DBC01CD0142E0660F771F881FF2
:10240000991F4A95D1F708952FB7F8946091B602B5
:102410007091B7028091B8029091B9022FBF0895D0
:102420001F920F920FB60F9211242F933F938F9309
:102430009F93AF93BF938091B6029091B702A09102
:10244000B802B091B9023091B50223E0230F2D37C5
:1024500020F40196A11DB11D05C026E8230F0296A8
:10246000A11DB11D2093B5028093B6029093B702CF
:10247000A093B802B093B9028091BA029091BB02C6
:10248000A091BC02B091BD020196A11DB11D809327
:10249000BA029093BB02A093BC02B093BD02BF915D
:1024A000AF919F918F913F912F910F900FBE0F9001
:1024B0001F9018956115710579F0FB0101900020BE
:1024C000E9F73197AF01461B570BDC01ED91FC9109
:1024D0000280F381E02D099480E090E008954F920E
:1024E0005F926F927F92EF92FF920F931F93CF9321
:1024F000DF93CDB7DEB7A1970FB6F894DEBF0FBE5E
:10250000CDBF7C01FA01CB0119A2223008F42AE0E8
:102510008E010F5D1F4F422E512C612C712CBF017B
:10252000A30192010E940029F901CA010150110979
:102530006A3014F4605D01C0695CD8016C93232B90
:10254000242B252B61F7B801C7010E945A12A196CE
:102550000FB6F894DEBF0FBECDBFDF91CF911F91B4
:102560000F91FF90EF907F906F905F904F90089544
:102570001F920F920FB60F9211242F933F934F93F8
:102580005F936F937F938F939F93AF93BF93EF93DB
:10259000FF9384E393E00E949E15FF91EF91BF911A
:1025A000AF919F918F917F916F915F914F913F91EB
:1025B0002F910F900FBE0F901F9018951F920F92A2
:1025C0000FB60F9211242F938F939F93EF93FF9346
:1025D000E0914403F09145038081E0914A03F0913A
:1025E0004B0382FD12C0908180914D038F5F8F73EA
:1025F00020914E03821751F0E0914D03F0E0EC5C26
:10260000FC4F958F80934D0301C08081FF91EF9126
:102610009F918F912F910F900FBE0F901F90189543
:1026200080E090E0892B29F00E946A1181110C94BE
:1026300000000895DC0126E0629FA00DB11D112469
:1026400090965C934E935F9721E091962C9391978F
:10265000FC01E459FF4F208131960190F081E02D7B
:10266000222331F0309749F0611107C0DC0102C02C
:10267000309719F05C968C910994089521E001C07F
:10268000220F6A95EAF7DC011C962C931C971A9688
:102690005C934E931997ED91FC910084F185E02DA8
:1026A00060E00994DC01ED91FC910284F385E02D5A
:1026B00041E0099581E090E0089508950895089516
:1026C000E091DF028091DE02E81730F4F0E0E2549E
:1026D000FD4F808190E008958FEF9FEF08959091D6
:1026E000DF028091DE02981750F4E92FF0E0E25407
:1026F000FD4F208130E09F5F9093DF0202C02FEFFB
:102700003FEFC90108958091DE0290E02091DF0241
:10271000821B910908956F927F928F929F92AF9240
:10272000BF92CF92DF92EF92FF921F93CF93DF93EE
:102730001F92CDB7DEB73C01162FFC0186E0689FE3
:10274000E00DF11D112411A2878D90A1813091051A
:10275000F9F01CF4892B51F04FC082309105B1F192
:10276000039709F049C040E050E034C0442309F425
:1027700043C041E050E0C3010E941A130E940412BA
:10278000F301E85AFF4F608371838283938334C0DF
:1027900049830E940412F301E85AFF4FC080D180A0
:1027A000E280F3804B015C018C189D08AE08BF08E5
:1027B000729680819181A0E0B0E0498188159905E9
:1027C000AA05BB0518F442E050E004C0411114C052
:1027D00043E050E0612FC3010F90DF91CF911F9133
:1027E000FF90EF90DF90CF90BF90AF909F908F9031
:1027F0007F906F900C941A130F90DF91CF911F91DF
:10280000FF90EF90DF90CF90BF90AF909F908F9010
:102810007F906F900895862F0C94A21DEF92FF92E7
:102820000F931F93CF93DF937C018C01C0E0D0E026
:10283000F80186890E94A21D892B51F42696CC0F9F
:10284000DD1FCC0FDD1FCE0DDF1D8881998108C0F3
:1028500021960C5F1F4FC530D10551F780E090E005
:10286000DF91CF911F910F91FF90EF900895862FE8
:10287000642F0C94CB1D862F642F0C94FB1DCF92DC
:10288000DF92EF92FF920F931F93CF93DF9301E0BC
:1028900010E002C0000F111F6A95E2F77C012FE6DD
:1028A000E20EF11C6C01ECE7CE0ED11CF60140816A
:1028B00050E03197608170E0C7010E94D805C701E0
:1028C0000E946F13EC01F6018081823040F0C70155
:1028D0000E946F1320E030E0382FC22BD32BC0238F
:1028E000D12381E090E0C017D10711F080E090E0A3
:1028F000DF91CF911F910F91FF90EF90DF90CF90DC
:102900000895CF92DF92EF92FF920F931F93CF9390
:10291000DF938C0181E090E002C0880F991F6A95D7
:10292000E2F7E801C358DF4F442329F028813981B9
:10293000822B932B06C08095909528813981822324
:10294000932399838883C880D980F801E558FF4F85
:10295000808178019FE6E90EF11C91E09093E302FB
:102960008093E2021092E1021092E002D701ED9111
:10297000FC910190F081E02D6C2DC7010995F801C3
:10298000E458FF4F8081823048F0D701ED91FC91EF
:102990000190F081E02D6D2DC7010995C7010E94BE
:1029A0007B05C882D982DF91CF911F910F91FF9053
:1029B000EF90DF90CF900895FC0123812223C9F08E
:1029C0009181909569236083828191E09093E302E5
:1029D0008093E2021092E1021092E00281ED93E016
:1029E0000E949F0781ED93E00E947B05282F30E035
:1029F00002C020E030E081E090E0232B11F080E085
:102A000090E00895EF92FF920F931F93CF938C0164
:102A1000FC01759684E0C0E060FF02C09081C92B84
:102A20006695815031968111F7CF413011F4F8014C
:102A30004489F8018585C82BC42B7801FEE0EF0E90
:102A4000F11CF80162896C2BC7010E94DC14F801AB
:102A5000628960956C23C701CF911F910F91FF9000
:102A6000EF900C94DC140F931F93CF93DF93062FFA
:102A70000F70423019F440E0602F10C0142F262F41
:102A8000EC0130E0B90184E0759567958A95E1F72E
:102A9000CE010E940215412F602FCE01DF91CF9110
:102AA0001F910F910C940215FC0184858823A9F0D5
:102AB000218532852115310519F4611106C007C041
:102AC0002130310521F4611102C0858701C01586CE
:102AD0006585CF010E960C94DC140895CF92DF9299
:102AE000EF92FF920F931F93CF93DF937C01262FDA
:102AF000972F8A018091E302882391F0C62FD72F68
:102B00006E01C40ED51ECC15DD0571F06991D7019B
:102B1000ED91FC910190F081E02DC7010995F3CF73
:102B2000642F822F0E947707C801DF91CF911F91F8
:102B30000F91FF90EF90DF90CF900895FC01848D6E
:102B4000DF01A80FB11DA35ABF4F2C91848D90E0D7
:102B500001968F739927848FA689B7892C93A089B2
:102B6000B1898C9180648C93938D848D981306C069
:102B70000288F389E02D80818F7D808308952F92D4
:102B80003F924F925F926F927F928F929F92AF92FD
:102B9000BF92CF92DF92EF92FF920F931F93CF934A
:102BA000DF93CDB7DEB72A970FB6F894DEBF0FBE1E
:102BB000CDBF9A8789870E94041229853A85205AB9
:102BC0003F4F3A832983D9010D911D912D913C915D
:102BD000AB01BC01401B510B620B730BE985FA85FD
:102BE000E859FF4F80819181A0E0B0E010E08417A8
:102BF0009507A607B70708F05FC169847A84FEE5E8
:102C00006F0E711CE984FA8424E6E20EF11CD301F4
:102C10008C911817A0F4E985FA8580819181F701DC
:102C2000A081B181A10FB11DFC012081318142E061
:102C30006C9189859A85F90109951F5FE8CF10E0AD
:102C400029843A84BFE52B0E311CE984FA84E6E638
:102C5000EE0EF11C812C912C5401839429853A8528
:102C60002C593F4F3C832B83F1018081181708F0CA
:102C70008DC0C12ED12CA985BA858D919C91F7016B
:102C8000A081B181AC0DBD1DFC012081318141E0ED
:102C90006C9189859A85F9010995A985BA858D91E7
:102CA0009C91F701A081B181AC0DBD1DFC01228179
:102CB000338140E06C9189859A85F9010995D501A8
:102CC000C401012E04C0880F991FAA1FBB1F0A94BC
:102CD000D2F7AC019C012095309500E0F301808192
:102CE000A985BA85ED91FC91081770F5802F90E0C9
:102CF000AB81BC816D917C912C01DB01A40DB51DD4
:102D00000480F581E02D6C9189859A852F83388721
:102D10004D835E830995440C551C2F8138854D8168
:102D20005E81E985FA85E40DF51D892B29F48085FE
:102D30009185842B952B04C08085918582239323D4
:102D4000918780870F5FCACFD7018D919C91DC015D
:102D5000AC0DBD1D0280F381E02D41E06C918985B1
:102D60009A850995A985BA85ED91FC91D7018D9138
:102D70009C91DC01AC0DBD1D0190F081E02D40E087
:102D80006C9189859A8509951F5F6ECFE984FA84D5
:102D9000FCE1EF0EF11C89859A85885A9F4FF70157
:102DA0002FEF3FEF43815481452B21F41082328372
:102DB000218315823696E817F907A1F7B12CC9844B
:102DC000DA842CE5C20ED11C86E0A82EF3018081A6
:102DD000B81608F059C0912C09851A850B0D111DE4
:102DE0000B0D111D085F1F4FD1018C91981608F033
:102DF00049C0D8014D915C91092C02C05695479568
:102E00000A94E2F741705527B89EC0011124890D3C
:102E1000911DD601ED91FC91E80FF91FA081E98584
:102E2000FA8560E0258D368D2817390721F4417029
:102E300089859A851CC06F5F36966A3099F7452B55
:102E4000F9F0F70160E070E02081211113C0A69E27
:102E5000F001A79EF00D112429853A85E20FF31F9A
:102E6000A48F968F858F10A2178E41E0C9010E9412
:102E70008B1306C06F5F7F4F36966A30710521F75E
:102E80009394B2CFB394A2CFE985FA85B1968985A0
:102E90009A85835A9F4F10E02081211111E03696C8
:102EA000E817F907C9F70E940412A981BA816D9346
:102EB0007D938D939C931397812F2A960FB6F89448
:102EC000DEBF0FBECDBFDF91CF911F910F91FF905D
:102ED000EF90DF90CF90BF90AF909F908F907F90BA
:102EE0006F905F904F903F902F900895DC01ED918F
:102EF000FC910284F385E02D40E009940F931F9329
:102F0000CF93DF93EC01423018F08C8188608C8382
:102F10004F836887222329F0413019F48C81846023
:102F20008C8364E670E080E090E00E94371E6C8144
:102F300064FD31C0E881F9810284F385E02D42E02F
:102F400063E0CE0109958BE496E40197F1F7E881FF
:102F5000F9810284F385E02D42E063E0CE0109951A
:102F600003E512E0C8010197F1F7E881F9810284D5
:102F7000F385E02D42E063E0CE010995C801019799
:102F8000F1F7E881F9810284F385E02D42E062E007
:102F9000CE01099517C06062CE010E9476178BE4BE
:102FA00096E40197F1F76C816062CE010E9476177A
:102FB00003E512E0C8010197F1F76C816062CE0170
:102FC0000E947617C8010197F1F76C816062CE010B
:102FD0000E9476178BEE90E00197F1F784E08D83E5
:102FE0006CE0CE010E94761761E0CE010E94761758
:102FF0008BE39FE10197F1F782E08E8366E0CE01DB
:103000000E947617E881F9810084F185E02D6FEF49
:10301000CE01DF91CF911F910F910994FF920F93F1
:103020001F93CF93DF93EC01162F042FF22E8B8585
:10303000888B81ED93E00E942306888991E090932C
:10304000E3028093E2021092E1021092E00281ED2D
:1030500093E00E947B0591E0811190E0998B992388
:1030600029F081ED93E00E946F138E878989882370
:1030700039F01F861C8260E0CE010E960E94DC149F
:103080002F2D402F612FCE01DF91CF911F910F91F6
:10309000FF900C947E17CF92DF92FF920F931F93B5
:1030A000CF93DF931F92CDB7DEB78C010D5F1F4F1B
:1030B000F62E6B018C2D8F19841758F4C8014983A3
:1030C0000E944B2EF60181936F010F5F1F4F4981C4
:1030D000F1CF0F90DF91CF911F910F91FF90DF9073
:1030E000CF900895CF92DF92FF920F931F93CF93CB
:1030F000DF931F92CDB7DEB78C010D5F1F4FF62E09
:103100006B018C2D8F19841758F4F60161916F01B2
:10311000C80149830E94532E0F5F1F4F4981F1CF91
:1031200060E080E090E00F90DF91CF911F910F91D0
:10313000FF90DF90CF900C94532ECF93DF931F928C
:10314000CDB7DEB769830B96FC018591949100970A
:1031500029F0BE016F5F7F4F0E94D1070F90DF9172
:10316000CF910895833081F028F4813099F0823036
:10317000A1F008958730A9F08830B9F08430D1F4F7
:10318000809180008F7D03C0809180008F77809335
:103190008000089584B58F7702C084B58F7D84BD8B
:1031A00008958091B0008F7703C08091B0008F7D2B
:1031B0008093B000089540E150E060E270E08CE060
:1031C00094E00E944F2B80911E04813039F48FE4EB
:1031D0009EE690930D0480930C0409C08FE496E65C
:1031E000A6E680930C0490930D04A0930E0420E1B6
:1031F00030E040E050E061E070E08CE094E00C945E
:10320000AA1F1F93CF93DF93182FD92FC62F40E10A
:1032100050E060E270E08CE094E00E944F2BE12FE0
:10322000FD2FEC0FF11DEC0FF11D659174916F5F97
:103230007F4F4FE050E08CE094E00E94762B20E13D
:1032400030E040E050E061E070E08CE094E0DF913D
:10325000CF911F910C94AA1F0F931F93CF93DF93CD
:10326000EC01FC0170961491113009F098C0109394
:10327000E40340E150E0BC018CE094E00E94762B36
:1032800020E130E040E050E060E070E08CE094E06D
:103290000E94AA1FFE01729685919491FC0164918F
:1032A0003996A591B491611104C08C9180931E044C
:1032B0006FC08FEF860F823040F48D919C911197F3
:1032C000909324048093230463C08DEF860F823093
:1032D00070F40D911D912D913C91139700931F0453
:1032E00010932004209321043093220451C06930AC
:1032F00031F5FD013396C591D491FD0185919491ED
:10330000FC018081FD013296A4919E0160E090E075
:103310009A1761F0F90145915491FA0144914813CB
:1033200001C0692F9F5F2E5F3F4FF2CF60931E0455
:10333000CE01DF91CF911F910F910C9401196A304A
:10334000D1F4FD013196C591D491FD01A4918881FC
:1033500090E002C095958795AA95E2F780FF03C09B
:1033600010931E0402C010921E04DF91CF911F9192
:103370000F910C94DB180D911D912D913C91139799
:1033800000932504109326042093270430932804E7
:10339000CD01DF91CF911F910F910C941520111148
:1033A00034C061112EC02091E9033091EA038217E5
:1033B000930739F18091ED039091EE03892B79F019
:1033C0008091EF039091F003892B61F08091F103DC
:1033D0009091F203892B79F482E090E005C080E0BF
:1033E00090E002C081E090E0880F991FFC01E3515A
:1033F000FC4F31832083D093EA03C093E9031092FA
:10340000070460910704CE0114C01230D9F462960B
:10341000FE0185919491009711F0FC01099580912E
:10342000E303882361F0609107048091E9039091A0
:10343000EA03DF91CF911F910F910C94B21F81E0AD
:103440008093E603DF91CF911F910F9108952F9202
:103450003F924F925F926F927F928F929F92AF9224
:10346000BF92CF92DF92EF92FF920F931F93CF9371
:10347000DF93CDB7DEB764970FB6F894DEBF0FBE0B
:10348000CDBF042F4296FC0185919491FC011491CB
:103490003596C590D590E590F490FC013196259134
:1034A000359145915491298B3A8B4B8B5C8B6430D1
:1034B00009F426C3633008F052C241E0613009F4D8
:1034C00040E0193029F5FC01399625913491F90134
:1034D00032969491319625913491EFEFE90F9091C6
:1034E0001E04442339F0911103C0E0931E040AC066
:1034F000915006C09E1303C010921E0403C09F5F2C
:1035000090931E0460911E04C9010E94011901C319
:103510001A3059F481E090911E04913009F480E052
:1035200080931E040E94DB18F4C2442319F08FEF2D
:103530009FEF02C081E090E020911C0430911D04B7
:10354000829F5001839FB00C929FB00C1124B50153
:103550000B2C000C880B990B0E94282A163029F49A
:1035600020E030E040E251E40DC0173029F420E0C3
:1035700030E048EC52E406C0183031F420E030E08E
:103580004AE754E40E94B42949885A886B887C88A9
:103590002DEF200F2230B8F4109229049B01AC01CA
:1035A000609125047091260480912704909128044D
:1035B0000E94432960932504709326048093270476
:1035C000909328041DC00334C9F41092250410926E
:1035D0002604109227041092280410921F041092BF
:1035E00020041092210410922204109224041092BC
:1035F000230410921E04A12CB12CC8C0A12CB12C04
:1036000000530A3008F0C2C080912904823008F4C7
:1036100042C080911E04880F982F990F990F890F2F
:1036200080931E0420912304309124044AE0429F99
:10363000C001439F900D1124909324048093230490
:1036400020911F04309120044091210450912204C4
:10365000AAE0B0E00E94222960931F047093200426
:10366000809321049093220420E030E040E251E472
:10367000609125047091260480912704909128047C
:103680000E94DD2A6093250470932604809327040A
:103690009093280418C08130B1F410921F04109246
:1036A00020041092210410922204109224041092FB
:1036B000230410921E0410922504109226041092E6
:1036C00027041092280480911E04800F80931E040A
:1036D0008091230490912404800F911D90932404E1
:1036E0008093230480911F0490912004A0912104D1
:1036F000B0912204800F911DA11DB11D80931F0464
:1037000090932004A0932104B0932204163061F416
:10371000602F000F770B880B990B0E94282A20E05E
:1037200030E040E251E40DC0173011F5602F000F7A
:10373000770B880B990B0E94282A20E030E048EC98
:1037400052E40E94B4299B01AC0160912504709160
:10375000260480912704909128040E9443296093B5
:103760002504709326048093270490932804A6C010
:10377000183061F4602F000F770B880B990B0E94B3
:10378000282A20E030E04AE754E4DBCF111121C0C1
:10379000C114D104E104F10431F441145104610471
:1037A000710409F4D3C080911E0490E0A0E0B0E061
:1037B000481659066A067B0614F4C98807C0C8165D
:1037C000D906EA06FB0614F46C017D01C0921E04C2
:1037D000BDC0113011F0123089F580912304909111
:1037E00024048A0D9B1DC114D104E104F104D1F419
:1037F0004114510461047104A9F49093240480934A
:1038000023040DC08C159D05AE05BF0514F4D7012A
:10381000C601282F892F209323048093240483E258
:1038200094E099C0092E000CAA0BBB0B4816590650
:103830006A067B063CF729898A89EDCF133011F09F
:103840001430E1F5A501BB0C660B770B80911F04CA
:1038500090912004A0912104B0912204840F951F1F
:10386000A61FB71FC114D104E104F10471F441147F
:1038700051046104710449F480931F04909320045F
:10388000A0932104B093220416C0481659066A0674
:103890007B064CF02C013D018C159D05AE05BF0546
:1038A00014F42601370140921F04509220046092C4
:1038B0002104709222048FE194E04DC0C114D10420
:1038C000E104F10431F4411451046104710409F478
:1038D00040C02090250430902604809027049090CA
:1038E0002804C301B2010E94282A762EA72EB82EE2
:1038F000092F262F372F482F592FB101C4010E94BD
:10390000D82A1816B4F0C701B6010E94282A762ECC
:10391000A72EB82E092F262F372F482F592FB10148
:10392000C4010E94AF2987FD04C0722CA32CB82CBF
:10393000092D872D9A2DAB2DB02F809325049093C0
:103940002604A0932704B093280403C08EE194E0DA
:1039500002C085E294E0612F0E941520DAC0633036
:1039600009F0D7C0FC013996A591B491193099F4AA
:10397000FD0133962591349140911E04F901E40F25
:10398000F11DE40FF11D65917491FB016491FD013E
:10399000A591B4912AC01A3021F5FD0131966591A7
:1039A0007491FD01A49120911E04FB01B08122239A
:1039B00049F041E050E001C0440FAA95EAF74B2BD3
:1039C00040830AC021E030E001C0220FAA95EAF747
:1039D00020952B23FB012083FB0160810E949D1811
:1039E0008FC0111104C060911E046C93F7CF123088
:1039F000A9F420912304309124042D933C93388B17
:103A00002F87FC013B9685919491009709F478C02B
:103A1000BE01615F7F4F0E94CE0772C01130A1F4DA
:103A200020912304309124042D933C933E872D87CD
:103A3000FC013B9685919491009709F461C042E0A6
:103A4000BE01635F7F4F5AC01430E9F440911F04F8
:103A50005091200460912104709122044D935D9354
:103A60006D937C93139749875A876B877C87FC01FA
:103A70003B9685919491009709F442C044E0BE01C1
:103A8000675F7F4F3BC01330E1F440911F045091BA
:103A9000200460912104709122044D935D936D93F5
:103AA0007C9313974D835E836F837887FC013B96ED
:103AB00085919491009721F144E0BE016B5F7F4FA7
:103AC0001DC01530E8F04091250450912604609106
:103AD0002704709128044D935D936D937C93139705
:103AE00049835A836B837C83FC013B968591949137
:103AF000009731F044E0BE016F5F7F4F0E94721863
:103B00001092E40361E08091E9039091EA030E943E
:103B10002C1964960FB6F894DEBF0FBECDBFDF91AF
:103B2000CF911F910F91FF90EF90DF90CF90BF90BA
:103B3000AF909F908F907F906F905F904F903F904D
:103B40002F900895CF93DF93282F30E0F901EA5E9C
:103B5000FE4F8491F901EE5FFE4FD491F901E251DD
:103B6000FF4FC491CC2391F081110E94B218EC2F29
:103B7000F0E0EE0FFF1FEC51FF4FA591B491EC91D7
:103B8000ED2381E090E021F480E002C080E090E04D
:103B9000DF91CF9108951F93CF93DF93282F30E0CB
:103BA000F901EA5EFE4F8491F901EE5FFE4FD49178
:103BB000F901E251FF4FC491CC23C9F0162F8111B6
:103BC0000E94B218EC2FF0E0EE0FFF1FE652FF4FFD
:103BD000A591B4918FB7F894111105C09C91ED2F68
:103BE000E095E92302C0EC91ED2BEC938FBFDF91C0
:103BF000CF911F910895CF93DF9390E0FC01EE5F8A
:103C0000FE4F2491FC01E251FF4F8491882361F122
:103C100090E0880F991FFC01E053FF4FC591D491AC
:103C2000FC01E652FF4FA591B491611109C09FB705
:103C3000F8948881209582238883EC912E230BC0F1
:103C4000623061F49FB7F8943881822F8095832386
:103C50008883EC912E2B2C939FBF06C08FB7F894CE
:103C6000E8812E2B28838FBFDF91CF9108958F920B
:103C70009F92AF92BF92CF92DF92EF92FF926B0131
:103C80007C010E94DF114B015C01C114D104E104ED
:103C9000F104F1F00E94DF11DC01CB0188199909D0
:103CA000AA09BB09883E9340A105B10570F321E044
:103CB000C21AD108E108F10888EE880E83E0981E48
:103CC000A11CB11CC114D104E104F10419F7DDCF2A
:103CD000FF90EF90DF90CF90BF90AF909F908F902C
:103CE00008950F931F93CF93DF938C01C0E0D0E032
:103CF000F801EC0FFD1F6491662371F0E091AF04B1
:103D0000F091B0040190F081E02D8FEA94E00995E4
:103D1000892B11F02196ECCFCE01DF91CF911F912D
:103D20000F910895BC018FEA94E00C945A12CF933E
:103D3000DF93CDB7DEB728970FB6F894DEBF0FBE7E
:103D4000CDBF1D8290E49E8324E12F8324E5288744
:103D500019829A8390E19B8390E59C839091B604AD
:103D6000691710F06FEF690F4091B704262F30E00C
:103D7000FE01E20FF31F403121F4943011F49181E0
:103D800001C09581682F690F60688FEA94E02896DA
:103D90000FB6F894DEBF0FBECDBFDF91CF910C946C
:103DA0007617E091AF04F091B0040190F081E02D1E
:103DB000682F8FEA94E009948F929F92AF92BF92FE
:103DC000CF92DF92EF92FF920F93CF93DF935C013C
:103DD000EB016A01490160E080E00E94971EC50185
:103DE0000E94921E80E20E94D11E84EB91E00E940C
:103DF000921E80E20E94D11EA40160E070E02AE0E1
:103E00008FEA94E00E946F1288EB91E00E94921E6C
:103E1000A60160E070E02AE08FEA94E00E946F1251
:103E20008AEB91E00E94921EAE0160E070E02AE011
:103E30008FEA94E00E946F128CEB91E00E94921E38
:103E40000E94DD0C61E080E00E94971E01110CC011
:103E5000A70160E070E02AE08FEA94E00E946F1210
:103E60008CEB91E00E94921E0E94DD0CDF91CF91BD
:103E70000F91FF90EF90DF90CF90BF90AF909F9009
:103E80008F900C94DD0C8F929F92AF92BF92CF9245
:103E9000DF92EF92FF920F93CF93DF935C01EB01E0
:103EA0006A01490160E080E00E94971EC5010E94FE
:103EB000921E80E20E94D11E8EEB91E00E94921E23
:103EC00080E20E94D11EA40160E070E02AE08FEA47
:103ED00094E00E946F1288EB91E00E94921EA6016E
:103EE00060E070E02AE08FEA94E00E946F128AEBB3
:103EF00091E00E94921EAE0160E070E02AE08FEA3D
:103F000094E00E946F128CEB91E00E94921E0E943E
:103F1000DD0C61E080E00E94971E002361F0A701A4
:103F200060E070E02AE08FEA94E00E946F128CEB70
:103F300091E00E94921E0E94DD0CDF91CF910F91C3
:103F4000FF90EF90DF90CF90BF90AF909F908F90B9
:103F50000C94DD0CE0910804F0910904309709F00D
:103F600009940895CF92DF92EF92FF920F931F93DF
:103F7000CF93DF93FC017196C491C1503196C590E7
:103F8000D490E62EF12CF701EE0FFF1FEC0DFD1D76
:103F9000859194919093E8038093E70300E010E00B
:103FA000D0E040E150E060E270E08CE094E00E94FC
:103FB0004F2B21E030E040E050E00115110529F4DD
:103FC00060E070E082EC91E004C061E070E08BE9B9
:103FD00091E00E94AA1FF801EE0DFF1DCE17DF072A
:103FE00064F0EE0FFF1FEC0DFD1D6591749140E133
:103FF00050E08CE094E00E94762B20E130E041E03C
:1040000050E0B8018CE094E00E94AA1F0130110535
:1040100019F001E010E0C5CFDF91CF911F910F9112
:10402000FF90EF90DF90CF9008950F931F93CF9361
:104030008C01C62F40E150E060E270E08CE094E03B
:104040000E944F2BC730D9F1C830D9F1C11107C038
:10405000F80180814AE06CE074E090E013C0C13068
:1040600049F44AE06CE074E0F801808191810E949B
:104070007F2B35C0C23049F44AE06CE074E0F801AF
:10408000808191810E94BB2B2AC0C33059F4F80172
:1040900060817181828193812AE04CE054E00E942A
:1040A0008A2B1DC0C43079F4F8016081718182814E
:1040B00093812AE04CE054E00E94992B10C022E04A
:1040C00003C023E001C021E042E0420FF80160811B
:1040D0007181828193810CE014E00E94562B20E1D3
:1040E00030E040E050E061E070E08CE094E0CF919F
:1040F0001F910F910C94AA1FCF93DF9300D01F92B2
:10410000CDB7DEB7789484B5826084BD84B5816014
:1041100084BD85B5826085BD85B5816085BD809192
:104120006E00816080936E0010928100809181000A
:104130008260809381008091810081608093810002
:10414000809180008160809380008091B1008460C4
:104150008093B1008091B00081608093B000809125
:104160007A00846080937A0080917A0082608093E4
:104170007A0080917A00816080937A0080917A0041
:10418000806880937A001092C100E0914403F0911E
:10419000450382E08083E0914003F0914103108267
:1041A000E0914203F09143038FEC808310924C0323
:1041B000E0914803F091490386E08083E091460353
:1041C000F0914703808180618083E0914603F09104
:1041D0004703808188608083E0914603F091470324
:1041E000808180688083E0914603F091470380815D
:1041F0008F7D808380E090E00E944B2E811103C070
:104200000E94390A02C00E947A090E94E70881EDE3
:1042100093E00E94230688E091E0909389048093C4
:1042200088048BE994E00E9423064091A80450E0A2
:104230006091A70470E08BE994E00E94D8058BE9B7
:1042400094E00E946F139093AA048093A904809134
:10425000A804823088F08BE994E00E946F1320E07C
:1042600030E0382F8091A9049091AA04822B932BDF
:104270009093AA048093A90420E042E060E18FEAD1
:1042800094E00E940E188EE395E0909309048093C9
:10429000080489E99DE090930B0480930A0481E06F
:1042A0008093E3030E94990D61E08DE00E94FB1D65
:1042B00061E089E00E94CB1D61E08AE00E94CB1D95
:1042C00061E08BE00E94CB1D61E08CE00E94CB1D81
:1042D00061E089E00E94FB1D61E08AE00E94FB1D15
:1042E00061E08BE00E94FB1D61E08CE00E94FB1D01
:1042F00060E087E00E94FB1D61E087E00E94CB1D2B
:1043000061E084E00E94CB1D61E084E00E94FB1D1F
:10431000EE24E394F12C0AE0202E312C00E11EE083
:104320008CE294E00E94EE0F8A3221F4BB24B39415
:10433000B092E3038091950281110DC00E94041296
:1043400060939102709392028093930290939402EF
:1043500021E0209395028091E603882371F08091FB
:10436000E303882351F01092E603609107048091E3
:10437000E9039091EA030E94B21F8091DF0381114B
:1043800052C08091E0038E3008F08E5087708064B8
:1043900080937C0080917A00806480937A00809181
:1043A0007A0086FDFCCF209178008091790030E082
:1043B000382B6091E1037091E20380918B02909120
:1043C0008C02821B930B97FF03C0919581959109F5
:1043D000681779072CF430938C0220938B0220C04D
:1043E000EDEDF3E080E090E046895789DA01A61B05
:1043F000B70BA217B3077CF4460F571F24173507D6
:1044000054F4880F991F880F991FFC01EB50FC4F43
:10441000C080D18013C0019634968530910521F774
:10442000C12CD12C0BC0E091DD03F091DE03019093
:10443000F081E02D8DED93E009956C018091900263
:1044400090E0C816D906B9F0C092900210928F027F
:104450000E940412609391027093920280939302DF
:104460009093940210928E0210928D02F0921D048D
:10447000E0921C04F6C00E94041280909102909079
:104480009202A0909302B0909402DC01CB018819B3
:104490009909AA09BB0989379105A105B10508F455
:1044A000E0C00E9404126093910270939202809384
:1044B000930290939402C114D10421F08091E303FC
:1044C00081110BC010928E0210928D02F0921D0489
:1044D000E0921C0410928F02C4C035E0C316D104D0
:1044E00019F481E08093E5038091E503882309F4C2
:1044F000B8C080918F0290E0C816D906C1F48091AF
:104500008D0290918E02019690938E0280938D027F
:10451000B1010E94EC28892B81F080911C049091BC
:104520001D04029690931D0480931C0406C0C09243
:104530008F02F0921D04E0921C044C2D2091E403A4
:10454000E5E0CE16D10419F0CA94CD28B1F48091DB
:10455000E7039091E803222321F063E00E94271AE9
:1045600009C060E0009721F48091EB039091EC0387
:104570000E942C191092290474C0433031F0443049
:1045800031F0423031F464E005C061E003C062E024
:1045900001C060E0222361F0809129048F5F809345
:1045A00029048091E7039091E8030E94271A59C0DB
:1045B0008FEF860F823018F0643009F052C02091DE
:1045C000E9033091EA03F9017196E491E150643016
:1045D00081F51092E8031092E7038091F103909126
:1045E000F203009781F48091EF039091F00300971C
:1045F00069F48091ED039091EE03009709F4D9C11D
:1046000020E030E005C022E030E002C021E030E0F0
:10461000220F331FF901E351FC4F11821082909356
:10462000EA038093E9031092070461E00E942C19C9
:1046300018C090910704613011F061E001C06FEF84
:10464000690FE61730F481E06F3F09F080E0682FD2
:1046500061956F3F09F46E2F60930704C9010E94B2
:10466000B21F0E9404128090AD029090AE02A09002
:10467000AF02B090B0024090B1025090B202609090
:10468000B3027090B402481459046A047B0430F0F9
:10469000641575058605970538F00CC06415750519
:1046A0008605970508F45AC1681579058A059B05A2
:1046B00008F054C10E9404126093AD027093AE02E0
:1046C0008093AF029093B002DC01CB0188519C4FE4
:1046D000AF4FBF4F8093B1029093B202A093B30249
:1046E000B093B40240918702509188026091890290
:1046F00070918A022AE084E393E00E946F1261EBDA
:1047000071E084E393E00E945A1280918602E09166
:104710002203F0912303FB83EA83C0901003D0901F
:1047200011034091FE025091FF026091EC027091E2
:10473000ED02882309F493C02091850280918702BD
:1047400090918802A0918902B0918A02211146C1FC
:104750008090300390903103A0903203B0903303E7
:1047600040907B0250907C0260907D0270907E02AF
:104770007694679457944794481459046A047B04C8
:1047800008F0D3C120917A022111D9C180901E0373
:1047900090901F03A0902003B090210340907102DD
:1047A00050907202609073027090740276946794D5
:1047B00057944794481459046A047B0408F064C26F
:1047C0002091700221116AC280900C0390900D0319
:1047D000A0900E03B0900F034090670250906802C3
:1047E0006090690270906A02769467945794479437
:1047F000481459046A047B0408F0F5C2209166024B
:104800002111FBC28090FA029090FB02A090FC0262
:10481000B090FD0240905D0250905E0260905F0299
:1048200070906002769467945794479448145904A2
:104830006A047B0408F086C30196A11DB11D809314
:10484000870290938802A0938902B0938A02892BF1
:104850008A2B8B2B21F4BB24B394B09284028091D9
:10486000870290918802A0918902B0918A022A81E0
:104870003B814901A12CB12C88159905AA05BB05DE
:1048800008F06AC3A0908402A11066C3A0925C02E3
:104890002601612C712C84159505A605B70508F035
:1048A0005EC3B0908402B1105AC3B0925B022A0179
:1048B000612C712C84159505A605B70508F052C327
:1048C000C0908402C1104EC3C0925A02AB0160E096
:1048D00070E084179507A607B70708F046C3D09085
:1048E0008402D11042C3D0925902609158028DE0E7
:1048F0000E94CB1D6091EA028A2D0E94E008A82E3A
:10490000809358026091E8028B2D0E94E008B82E37
:10491000809357026091E6028C2D0E94E008C82E19
:10492000809356026091E4028D2D0E94E008D82EFB
:104930008093550261E06A2589E00E94CB1D61E009
:104940006B258AE00E94CB1D61E06C258BE00E9404
:10495000CB1D61E06D258CE00E94CB1D8091E503AD
:10496000882321F08091E303811120C00E94990DDA
:10497000F1E0F09398048CE294E00E94BF15882344
:1049800009F4F6C280914D04882309F4F1C28091A4
:104990004B0490914C04019709F0EAC280914804BD
:1049A00090915402911102C0809354020E941013FE
:1049B000B7CC8091EB039091EC039093EA03809342
:1049C000E903109207041092E503E0910A04F091C4
:1049D0000B04309709F445CE099543CE2A813B81DB
:1049E0002901612C712C84159505A605B70528F4BD
:1049F00020918402222309F4ABCE309183023983C3
:104A00003323E9F020912A0330912B03209F4001AA
:104A1000219F900C309F900C112420912C033091F9
:104A20002D03FCE3BF2EB29EF001B39EF00D1124C6
:104A3000E80DF91D20912E0330912F031CC0209109
:104A4000240330912503209F4001219F900C309F2B
:104A5000900C11242091260330912703ECE3BE2E05
:104A6000B29EF001B39EF00D1124E80DF91D2091C6
:104A70002803309129032E0F3F1F2901612C712C2F
:104A80004092A9025092AA026092AB027092AC02CC
:104A900080907F0290908002A0908102B09082026C
:104AA0004090A9025090AA026090AB027090AC02B4
:104AB00084149504A604B70410F1298131E023275A
:104AC0002093830210927F02109280021092810242
:104AD0001092820240907B0250907C0260907D0296
:104AE00070907E02EFEF4E1A5E0A6E0A7E0A4092C6
:104AF0007B0250927C0260927D0270927E02409016
:104B00007F02509080026090810270908202FFEFDD
:104B10004F1A5F0A6F0A7F0A40927F02509280020A
:104B2000609281027092820213CE89288A288B2893
:104B300009F428CE109285021092830223CE26011A
:104B4000612C712C84159505A605B70528F42091D4
:104B50008402222309F41ACEB0907902B982BB20D4
:104B6000E9F02091180330911903209F4001219F03
:104B7000900C309F900C112420911A0330911B034C
:104B8000FCE3BF2EB29EF001B39EF00D1124E80DA0
:104B9000F91D20911C0330911D031CC020911203AC
:104BA00030911303209F4001219F900C309F900C67
:104BB00011242091140330911503ECE3BE2EB29E14
:104BC000F001B39EF00D1124E80DF91D209116039C
:104BD000309117032E0F3F1F2901612C712C409239
:104BE000A5025092A6026092A7027092A80280903D
:104BF000750290907602A0907702B0907802409073
:104C0000A5025090A6026090A7027090A80284149A
:104C10009504A604B70410F1298131E023272093DD
:104C20007902109275021092760210927702109219
:104C300078024090710250907202609073027090FE
:104C40007402EFEF4E1A5E0A6E0A7E0A40927102FB
:104C500050927202609273027092740240907502D8
:104C6000509076026090770270907802FFEF4F1AB2
:104C70005F0A6F0A7F0A4092750250927602609234
:104C800077027092780282CD89288A288B2809F4CD
:104C900097CD10927A021092790292CD2A01612C5E
:104CA000712C84159505A605B70528F4209184027A
:104CB000222309F489CDB0906F02B982BB20E9F0BC
:104CC0002091060330910703209F4001219F900C03
:104CD000309F900C11242091080330910903FCE3CC
:104CE000BF2EB29EF001B39EF00D1124E80DF91D08
:104CF00020910A0330910B031CC0209100033091D6
:104D00000103209F4001219F900C309F900C1124A3
:104D10002091020330910303ECE3BE2EB29EF0011A
:104D2000B39EF00D1124E80DF91D2091040330917C
:104D300005032E0F3F1F2901612C712C4092A10207
:104D40005092A2026092A3027092A40280906B0221
:104D500090906C02A0906D02B0906E024090A10203
:104D60005090A2026090A3027090A4028414950453
:104D7000A604B70410F1298131E0232720936F02A4
:104D800010926B0210926C0210926D0210926E02E1
:104D900040906702509068026090690270906A02C9
:104DA000EFEF4E1A5E0A6E0A7E0A40926702509238
:104DB00068026092690270926A0240906B025090A1
:104DC0006C0260906D0270906E02FFEF4F1A5F0AE6
:104DD0006F0A7F0A40926B0250926C0260926D02E1
:104DE00070926E02F1CC89288A288B2809F406CDAE
:104DF0001092700210926F0201CD2B01612C712C68
:104E000084159505A605B70528F420918402222370
:104E100009F4F8CCB0906502B982BB20E9F020918A
:104E2000F4023091F502209F4001219F900C309FA9
:104E3000900C11242091F6023091F702FCE3BF2E72
:104E4000B29EF001B39EF00D1124E80DF91D2091E2
:104E5000F8023091F9021CC02091EE023091EF026D
:104E6000209F4001219F900C309F900C1124209195
:104E7000F0023091F102ECE3BE2EB29EF001B39E3F
:104E8000F00D1124E80DF91D2091F2023091F3028A
:104E90002E0F3F1F2901612C712C40929D025092D0
:104EA0009E0260929F027092A00280906102909098
:104EB0006202A0906302B090640240909D02509004
:104EC0009E0260909F027090A00284149504A60434
:104ED000B70410F1298131E0232720936502109255
:104EE000610210926202109263021092640240907A
:104EF0005D0250905E0260905F0270906002EFEF82
:104F00004E1A5E0A6E0A7E0A40925D0250925E025E
:104F100060925F0270926002409061025090620263
:104F20006090630270906402FFEF4F1A5F0A6F0A8D
:104F30007F0A409261025092620260926302709214
:104F4000640260CC89288A288B2809F475CC1092D9
:104F500066021092650270CCA090830297CCB0904C
:104F60007902A3CCC0906F02AFCCD0906502BBCCCD
:104F70001092980480E014CD1092370310923603FB
:104F800088EE93E0A0E0B0E080933803909339037B
:104F9000A0933A03B0933B032CE131E03093350307
:104FA0002093340325EC30E03093410320934003F9
:104FB00024EC30E0309343032093420320EC30E0B4
:104FC000309345032093440321EC30E030934703B2
:104FD0002093460322EC30E03093490320934803AA
:104FE00026EC30E030934B0320934A0310924D039C
:104FF00010924E0310924F03109250031092D4035C
:105000001092D3038093D5039093D603A093D70334
:10501000B093D80386E391E09093D2038093D103B9
:105020001092B2041092B10480E691E09093B00423
:105030008093AF041092BF048FEF8093BE04109250
:10504000BD041092C0048FE38093BA041092BB0495
:105050001092BC041092B9041092B80484E08093BA
:10506000C10482E08093C20481E08093C30480E1A4
:105070008093C40480E28093C50480E48093C604D6
:1050800080E88093C70440E050E063E08FEA94E05A
:105090000E943E1310922E0410923204109231049A
:1050A0001092330480E090E0FC01E45DFB4F148E2D
:1050B00010A2178E11A206968C339105A9F784E0F1
:1050C00091E0909391048093900480E091E090931C
:1050D00093048093920484E080938A0480938B04E9
:1050E00088E091E090938904809388048AE090E0BE
:1050F000909395048093940484EF91E090939704A7
:105100008093960410929A041092990410928C0441
:1051100010928D0410928E0410928F0410929804B5
:1051200010929E0410929D0488EE93E0A0E0B0E0FF
:1051300080939F049093A004A093A104B093A20431
:1051400080E28093A70481E08093A80426E431E004
:1051500030932D0420932C0420E531E030939C04FF
:1051600020939B048093DF0320E038E03093EA0330
:105170002093E9033093EC032093EB031092E403B4
:105180008093E3031092E5031092E8031092E70383
:10519000109209041092080410920B0410920A0451
:1051A00081E090E090931D0480931C048CE0EDEE70
:1051B000F3E0DF011D928A95E9F71092290480E758
:1051C00091E09093DE038093DD038CE294E0909372
:1051D0002B0480932A040895AA1BBB1B51E107C02E
:1051E000AA1FBB1FA617B70710F0A61BB70B881F77
:1051F000991F5A95A9F780959095BC01CD01089506
:10520000A1E21A2EAA1BBB1BFD010DC0AA1FBB1FCA
:10521000EE1FFF1FA217B307E407F50720F0A21B3C
:10522000B30BE40BF50B661F771F881F991F1A94A9
:1052300069F760957095809590959B01AC01BD01D3
:10524000CF0108950E943329A59F900DB49F900D22
:10525000A49F800D911D11240895EE0FFF1F05904E
:10526000F491E02D0994A29FB001B39FC001A39FC8
:10527000700D811D1124911DB29F700D811D11248F
:10528000911D08955058BB27AA270E945A290C94B3
:105290009E2A0E94902A38F00E94972A20F039F422
:1052A0009F3F19F426F40C948D2A0EF4E095E7FB49
:1052B0000C94872AE92F0E94AF2A58F3BA17620785
:1052C00073078407950720F079F4A6F50C94D12A8A
:1052D0000EF4E0950B2EBA2FA02D0B01B901900111
:1052E0000C01CA01A0011124FF27591B99F0593F55
:1052F00050F4503E68F11A16F040A22F232F342F9D
:105300004427585FF3CF469537952795A795F040EA
:105310005395C9F77EF41F16BA0B620B730B840BFF
:10532000BAF09150A1F0FF0FBB1F661F771F881FB7
:10533000C2F70EC0BA0F621F731F841F48F487950F
:1053400077956795B795F7959E3F08F0B0CF939501
:10535000880F08F09927EE0F9795879508950E947A
:10536000632A08F481E008950E94C8290C949E2ABB
:105370000E94972A58F00E94902A40F029F45F3F3B
:1053800029F00C94872A51110C94D22A0C948D2A5E
:105390000E94AF2A68F39923B1F3552391F3951B2B
:1053A000550BBB27AA2762177307840738F09F5F46
:1053B0005F4F220F331F441FAA1FA9F335D00E2EB3
:1053C0003AF0E0E832D091505040E695001CCAF720
:1053D0002BD0FE2F29D0660F771F881FBB1F2617E3
:1053E00037074807AB07B0E809F0BB0B802DBF01BA
:1053F000FF2793585F4F3AF09E3F510578F00C9489
:10540000872A0C94D22A5F3FE4F3983ED4F3869522
:1054100077956795B795F7959F5FC9F7880F911DA9
:105420009695879597F90895E1E0660F771F881F95
:10543000BB1F621773078407BA0720F0621B730B48
:10544000840BBA0BEE1F88F7E0950895E89409C025
:1054500097FB3EF490958095709561957F4F8F4FA7
:105460009F4F9923A9F0F92F96E9BB279395F695BD
:10547000879577956795B795F111F8CFFAF4BB0F3B
:1054800011F460FF1BC06F5F7F4F8F4F9F4F16C09F
:10549000882311F096E911C0772321F09EE8872F29
:1054A000762F05C0662371F096E8862F70E060E0E5
:1054B0002AF09A95660F771F881FDAF7880F96955E
:1054C000879597F90895990F0008550FAA0BE0E802
:1054D000FEEF16161706E807F907C0F012161306B6
:1054E000E407F50798F0621B730B840B950B39F4F6
:1054F0000A2661F0232B242B252B21F408950A265C
:1055000009F4A140A6958FEF811D811D089597F99B
:105510009F6780E870E060E008959FEF80EC089559
:1055200000240A9416161706180609060895002482
:105530000A9412161306140605060895092E0394FC
:10554000000C11F4882352F0BB0F40F4BF2B11F470
:1055500060FF04C06F5F7F4F8F4F9F4F089557FDCF
:105560009058440F551F59F05F3F71F04795880FD1
:1055700097FB991F61F09F3F79F087950895121668
:1055800013061406551FF2CF4695F1DF08C0161614
:1055900017061806991FF1CF8695710561050894C5
:1055A0000895E894BB2766277727CB0197F90895DC
:1055B0000E94632A08F48FEF08950E94F02A0C9449
:1055C0009E2A0E94902A38F00E94972A20F0952364
:1055D00011F00C94872A0C948D2A11240C94D22A51
:1055E0000E94AF2A70F3959FC1F3950F50E0551FAD
:1055F000629FF001729FBB27F00DB11D639FAA2728
:10560000F00DB11DAA1F649F6627B00DA11D661F76
:10561000829F2227B00DA11D621F739FB00DA11D97
:10562000621F839FA00D611D221F749F3327A00D51
:10563000611D231F849F600D211D822F762F6A2FED
:1056400011249F5750409AF0F1F088234AF0EE0F52
:10565000FF1FBB1F661F771F881F91505040A9F77F
:105660009E3F510580F00C94872A0C94D22A5F3F0C
:10567000E4F3983ED4F3869577956795B795F795BB
:10568000E7959F5FC1F7FE2B880F911D9695879533
:1056900097F9089581E090E0F8940C94612EDC0174
:1056A00001C06D9341505040E0F70895EF920F9381
:1056B0001F93CF93DF93E80147FD02C034E001C0A0
:1056C00034E1E42F440FFF0BF7FF03C0F195E195A0
:1056D000F109E32E022F2E2FAE010E94D52BCE0111
:1056E000DF91CF911F910F91EF900895FB01DC01A5
:1056F00002C005900D9241505040D8F70895BB2745
:105700004A3031F4992322F4BDE2909581959F4F60
:105710000C94BC2BBB272A3051F4992342F4BDE2F0
:1057200090958095709561957F4F8F4F9F4F0C940A
:105730009A2BBB27FA01A62F6217710581059105E7
:10574000330B30FB66F0AA27660F771F881F991F5F
:10575000AA1FA21710F0A21B63953850A9F7A05DED
:10576000AA3308F0A95DA19336F7B111B193108265
:10577000CA010C943B2EBB27FB015527AA27880F93
:10578000991FAA1FA41710F0A41B83955051B9F7B5
:10579000A05DAA3308F0A95DA193009779F7B11134
:1057A000B1931192CB010C943B2E4F925F926F926A
:1057B0007F929F92AF92BF92CF92DF92EF92FF9231
:1057C0000F931F93CF93DF93CDB7DEB729970FB613
:1057D000F894DEBF0FBECDBF6A01122FB02E2BE3AF
:1057E000201720F0FF24F394F00E02C0BCE3FB2E40
:1057F0000F2D27E0AE014F5F5F4F0E94632DAC017C
:105800008981982F9970913031F0E1FC06C0E0FE5B
:1058100006C090E205C09DE203C09BE201C090E09B
:10582000EE2DE07183FF3CC0911102C083E001C006
:1058300084E0811718F4212F281B01C020E0E1111A
:105840000BC0F601822F30E2882319F0319381508A
:10585000FBCFC20ED11C20E0992329F0D6019C93E6
:10586000F60131966F01C6010396E2FE0AC03EE4DE
:10587000D6013C9341E411964C93119712963C93B8
:1058800006C03EE6F601308341E641833283FC01E7
:10589000322F40E2332309F442C041933150FACF12
:1058A00082FF44C0911102C083E001C084E08117EF
:1058B00018F4212F281B01C020E0E1110BC0F601D4
:1058C000822F30E2882319F031938150FBCFC20E32
:1058D000D11C20E0992329F0D6019C93F601319642
:1058E0006F01C6010396E2FE0BC039E4D6013C937A
:1058F0003EE411963C93119736E412963C9307C010
:1059000039E6F60130833EE6318336E63283FC0128
:10591000322F40E2332319F041933150FBCFFC0189
:10592000E20FF11D10828EEF9FEFB7C0F1E09111F1
:1059300001C0F0E06F2F70E01416150624F49A01F0
:105940002F5F3F4F02C021E030E0260F371FBB2002
:1059500029F06B2D70E06F5F7F4F02C060E070E058
:10596000260F371F612F70E0261737071CF4121B14
:10597000212F01C020E03E2D387159F4D601322F7D
:1059800060E2332319F06D933150FBCFC20ED11C6E
:1059900020E0FF2331F0D6019C93B6016F5F7F4F6B
:1059A0006B01E1110BC0F601922F30E3992319F03E
:1059B00031939150FBCFC20ED11C20E09F2D940F4C
:1059C0003A81782F7071A72E84FF03C0313309F418
:1059D0009150191624F4993018F098E001C091E024
:1059E000E42F852F57FF02C0E0E080E06E2F782F74
:1059F000E0E0F0E0AEE29A2E3A01691A71082A015D
:105A0000461A570A0B2D10E01195019511096F3FA9
:105A10008FEF780729F4D6019C92C60101966C019C
:105A20004617570784F0661677066CF47F01E40C7E
:105A3000F51CA1E0B0E0AC0FBD1FEA0EFB1ED701C4
:105A40001196BC9002C090E3B92E61507109319655
:105A5000C60101967C016017710724F0D601BC9243
:105A60006C01D5CF6417750741F4363320F4353314
:105A700021F4A11002C081E3B82EF601B082F70133
:105A8000822F90E2882319F091938150FBCFF70188
:105A9000E20FF11D108280E090E029960FB6F89495
:105AA000DEBF0FBECDBFDF91CF911F910F91FF9051
:105AB000EF90DF90CF90BF90AF909F907F906F90CE
:105AC0005F904F900895283008F027E03327DA01DF
:105AD000990F311D87FD916000966105710539F4BC
