:100000000C9488040C94B0040C94B0040C94B004C8
:100010000C94B0040C94B0040C94B0040C94B00490
:100020000C94B0040C94B0040C94B0040C94B00480
:100030000C94B0040C94B0040C94B0040C94B00470
:100040000C9410120C94B0040C94DE120C94B812A0
:100050000C94B0040C94B0040C94B0040C94B00450
:100060000C9449060C94B00420202020202020204D
:100070000041004D003000310053544F50200053D8
:10008000544152540041555420004D414E200056D9
:10009000595020005A4150200020202020202020AC
:1000A000474D41494C2E434F4D0042435345444C2C
:1000B0004F4E4000454D41494C202000202020203B
:1000C0002020200053544F502000535441525400DC
:1000D00000000000240027002A0000000000250086
:1000E00028002B0000000000230026002900040443
:1000F00004040404040402020202020203030303D0
:1001000003030102040810204080010204081020AB
:100110000102040810200000000800020100000392
:1001200004070000000000000000025A41502100B6
:10013000000000000000000000000156595021009E
:1001400000000000000000000000004155544F2155
:1001500000000000000000000000015A41500000B3
:100160000000000000000000000000565950000090
:10017000000000000000000000004A013A012A01CE
:100180006A015A01E002037A01E102028001E202FF
:10019000037A01E302028001E402037A01E502022C
:1001A0008001E602037A01E70202800109000000F3
:1001B00000000000008401C80002000000000000F0
:1001C0000000E802F400020000000000000000EA65
:1001D00002DC00020000000000000000EC02E00071
:1001E000020000000000000000EE02E40002000037
:1001F000000000000000F002D0000200000000003B
:10020000000000F202D40002000000000000000024
:10021000F402D800040000000000000000F602EC28
:10022000000900000000000000008901CC00090066
:10023000000000000000008E018C000200000000A1
:1002400000000000FA02B8000200000000000000F8
:1002500000FC02A000020000000000000000FE02FE
:10026000A4000200000000000000000003A800023B
:1002700000000000000000000203940002000000E3
:1002800000000000000403980002000000000000CD
:10029000000006039C0004000000000000000008AD
:1002A00003B000090000000000000000930190006E
:1002B000090000000000000000980150000200004A
:1002C0000000000000000C037C00020000000000A1
:1002D0000000000E036400020000000000000000A7
:1002E0001003680002000000000000000012036C10
:1002F000000200000000000000001403580002008B
:100300000000000000000016035C00020000000076
:10031000000000001803600004000000000000005E
:10032000001A0374000900000000000000009D0195
:100330005400090000000000000000A201140002A7
:1003400000000000000000001E034000020000004A
:100350000000000000200328000200000000000050
:10036000000022032C000200000000000000002416
:1003700003300002000000000000000026031C0003
:10038000020000000000000000280320000200001E
:100390000000000000002A03240004000000000008
:1003A0000000002C033800090000000000000000DD
:1003B000A7011800442052454C453A0000000000B7
:1003C000000000000100AC0144204F464653455454
:1003D0003A205B5345435D000100B9014420565962
:1003E000503A202020205B484F445D000100C601A8
:1003F00044205659503A202020205B4D494E5D0044
:100400000100D30144205659503A092020205B5363
:1004100045435D000100E00144205A41503A20204C
:1004200020205B484F445D000100ED0144205A410B
:10043000503A202020205B4D494E5D000100FA011A
:1004400044205A41503A202020205B5345435D0010
:10045000010007024420504F4345542043594B4C60
:10046000553A2000010014024420565943484F5A7F
:10047000493A0000000000000100210243205245DB
:100480004C453A00000000000000000001002E0270
:1004900043204F46465345543A205B5345435D0045
:1004A00001003B0243205659503A202020205B484F
:1004B0004F445D000100480243205659503A202025
:1004C00020205B4D494E5D000100550243205659E6
:1004D000503A092020205B5345435D000100620231
:1004E00043205A41503A202020205B484F445D0071
:1004F00001006F0243205A41503A202020205B4DDA
:10050000494E5D0001007C0243205A41503A2020B0
:1005100020205B5345435D00010089024320504F7A
:100520004345542043594B4C553A20000100960254
:100530004320565943484F5A493A000000000000F2
:100540000100A302422052454C453A000000000041
:10055000000000000100B00242204F4646534554BF
:100560003A205B5345435D000100BD0242205659CD
:10057000503A202020205B484F445D000100CA0211
:1005800042205659503A202020205B4D494E5D00B4
:100590000100D70242205659503A092020205B53CF
:1005A00045435D000100E40242205A41503A2020B8
:1005B00020205B484F445D000100F10242205A4177
:1005C000503A202020205B4D494E5D000100FE0284
:1005D00042205A41503A202020205B5345435D0081
:1005E00001000B034220504F4345542043594B4CCC
:1005F000553A2000010018034220565943484F5AEB
:10060000493A000000000000010025034120524546
:100610004C453A00000000000000000001003203D9
:1006200041204F46465345543A205B5345435D00B5
:1006300001003F0341205659503A202020205B48BA
:100640004F445D0001004C0341205659503A202090
:1006500020205B4D494E5D00010059034120565951
:10066000503A092020205B5345435D00010066039A
:1006700041205A41503A202020205B484F445D00E1
:100680000100730341205A41503A202020205B4D45
:10069000494E5D000100800341205A41503A20201C
:1006A00020205B5345435D0001008D034120504FE6
:1006B0004345542043594B4C553A200001009A03BE
:1006C0004120565943484F5A493A00000000000063
:1006D0000100A7036804540440042C041804040413
:1006E000F003DC03C803B40330051C050805F4045B
:1006F000E004CC04B804A40490047C04F805E405E8
:10070000D005BC05A805940580056C055805440571
:10071000C006AC069806840670065C0648063406D9
:1007200020060C064E4153542054455354210000DA
:10073000000000000200450B4E4153542031352F7C
:1007400031304D210000000002000D0C4E41535489
:1007500020312F312F312F314D2100000200D10CDB
:1007600044204E4153544156454E492D3E00000011
:10077000000AD40643204E4153544156454E492D5C
:100780003E000000000AE80642204E415354415604
:10079000454E492D3E000000000AFC0641204E4116
:1007A00053544156454E492D3E000000000A1007A3
:1007B0005245534554210000000000000000000095
:1007C0000200740953544F50210000000000000043
:1007D0000000000002003205535441525421000031
:1007E000000000000000000002003805D807C40720
:1007F000B0079C078807740760074C073807240771
:10080000524F4F54000000000000000000000000A4
:10081000000AEC0700407A10F35A00A0724E180943
:100820000010A5D4E80000E87648170000E40B5457
:10083000020000CA9A3B000000E1F5050000809626
:100840009800000040420F000000A0860100000058
:10085000102700000000E803000000006400000012
:1008600000000A00000000000100000000002C76DB
:10087000D888DC674F0823DFC1DFAE59E1B1B796F6
:10088000E5E3E453C63AE651997696E8E6C2842653
:10089000EB898C9B62ED407C6FFCEFBC9C9F40F22F
:1008A000BAA56FA5F490055A2AF75C936B6CF967AB
:1008B0006DC11BFCE0E40D47FEF520E6B500D0ED70
:1008C000902E0300943577050080841E08000020D8
:1008D0004E0A000000C80C333333330F986E128376
:1008E0001141EF8D2114893BE65516CFFEE6DB184A
:1008F000D1844B381BF77C1D901DA4BBE42420320F
:1009000084725E228100C9F124ECA1E53D27B8275D
:1009100011241FBECFEFD8E0DEBFCDBF11E0A0E0B5
:10092000B1E0EEEBFCE502C005900D92A43CB107EE
:10093000D9F724E0A4ECB1E001C01D92A43CB207B9
:10094000E1F714E0C8E8D4E004C02197FE010E945A
:100950002929C738D107C9F70E947C200C945D2E45
:100960000C94000085ED8093BC008091BC0084FD58
:10097000FCCF10923302089581E08093820280912F
:10098000770290917802A0917902B0917A02892B36
:100990008A2B8B2B41F481E09091E702911101C0E9
:1009A00080E080937F0280916D0290916E02A09111
:1009B0006F02B0917002892B8A2B8B2B41F481E05E
:1009C0009091E502911101C080E0809375028091C1
:1009D000630290916402A0916502B0916602892B36
:1009E0008A2B8B2B41F481E09091E302911101C09D
:1009F00080E080936B028091590290915A02A091FD
:100A00005B02B0915C02892B8A2B8B2B41F481E035
:100A10009091E102911101C080E0809361020895FC
:100A2000089542E00C944B1841E00C944B18CF937E
:100A3000DF93EC0161E08BEA94E00E947617EBE330
:100A4000FFE13197F1F760E080E00E94971ECE0150
:100A50000E94921E64EF71E080E090E0DF91CF9100
:100A60000C94371E1092820282E791E00C941705D5
:100A70000E94BC048CE791E00C941705CF92DF92A2
:100A8000EF92FF920F931F93CF93DF931F92CDB7F7
:100A9000DEB78C01D62E7901E091AB04F091AC0465
:100AA0000084F185E02D6FEF8BEA94E0498309958E
:100AB0006D2D4981842F0E94971E6801C601801BFD
:100AC000910B8E159F056CF4F60161916F018FED0E
:100AD000860F8E3508F060E28BEA94E00E94521394
:100AE000EDCF0F90DF91CF911F910F91FF90EF907D
:100AF000DF90CF9008952091DC029091DE022132A8
:100B000008F04AC0809133028111FCCF32E030936B
:100B1000330231E0309332023FEF309331021092D2
:100B2000300220932F02A4E3B2E04FE052E0FA013A
:100B30003E2F341B321718F43D913193F9CF1092A8
:100B40000E0220910E02990F922B90930E0290911B
:100B50000D02913061F410920D0290910E0290936B
:100B6000BB009091BC0093FDF8CF95EC01C095EED1
:100B70009093BC00909133029230E1F39091310256
:100B80009F3F79F080913102803241F080913102B3
:100B9000803331F084E005C081E003C082E001C011
:100BA00083E01092DD021092DC021092DF020895C1
:100BB000809133028111FCCF842F413208F080E212
:100BC00091E090933302909332022FEF2093310201
:100BD00010923002280F20932F0290930E029091D2
:100BE0000E02660F692B60930E0290910D029130F8
:100BF00061F410920D0290910E029093BB009091BF
:100C0000BC0093FDF8CF95EC01C095EE9093BC002D
:100C1000909133029130E1F390913002981710F4E3
:100C200080913002AFE0B2E02AEB32E0F9019E2F72
:100C3000921B981718F49D919193F9CF1092DB02B3
:100C40008093DA0208951092DB021092DA02109279
:100C5000DD021092DC021092330281E080933202B6
:100C600010920D0261E082E10E94CB1D61E083E100
:100C70000E94CB1DE9EBF0E080818E7F8083808134
:100C80008D7F808388E48093B80085E48093BC00E6
:100C900008951F920F920FB60F9211242F933F9336
:100CA0004F935F936F937F938F939F93AF93BF9374
:100CB000EF93FF938091B900887F803609F49CC040
:100CC00068F5883209F45BC090F4803109F454C0AF
:100CD00038F4882309F4F6C0883009F44DC0F6C012
:100CE000883109F44CC0803209F45DC0EFC0803413
:100CF00009F468C048F4803309F455C0883309F01A
:100D0000E5C080933102D8C0803509F44FC08835E2
:100D100009F45DC0883409F0D9C0D6C0883909F417
:100D2000C7C0A8F4883709F467C038F4883609F4D6
:100D300063C0803709F460C0C9C0883809F4B8C0FE
:100D4000803909F45FC0803809F0C0C05BC0803BC7
:100D500009F486C038F4803A09F466C0883A09F488
:100D60007FC0B4C0803C09F4A7C0883C09F4A4C08B
:100D7000883B09F48AC0AAC080910E0210C09091ED
:100D8000300280912F02981770F5E091300281E0D7
:100D90008E0F80933002F0E0E15FFD4F8081809301
:100DA000BB0085EC86C0809331028EC0E09130029A
:100DB00081E08E0F809330028091BB00F0E0E15F14
:100DC000FD4F80839091300280912F026EC0E091A0
:100DD000300281E08E0F809330028091BB00F0E002
:100DE000E15FFD4F80838091320281116DC081E00F
:100DF00080930D0284EA61C083E0809333021092F5
:100E00000C02CFCF80910C02803208F051C0E091EB
:100E10000C0281E08E0F80930C028091BB00F0E009
:100E2000E451FE4F8083BDCF85EC8093BC001092CF
:100E3000330280910C02803230F4E0910C02F0E039
:100E4000E451FE4F108260910C0270E0E091EA01E3
:100E5000F091EB018CEE91E0099510920C0236C0F6
:100E600084E0809333021092E9011092E801E0914E
:100E7000E601F091E70109958091E801811105C033
:100E800081E08093E8011092C601E091E90181E0E0
:100E90008E0F8093E901F0E0EA53FE4F808180934A
:100EA000BB009091E9018091E801981708F479CF8F
:100EB00085E88093BC000AC085EC8093BC0010924A
:100EC000330204C0109231020E94B204FF91EF91EC
:100ED000BF91AF919F918F917F916F915F914F9152
:100EE0003F912F910F900FBE0F901F90189540913A
:100EF000E801262F30E0240F311D21323105DCF4CA
:100F0000209133022430C9F4FC0180E090E0861780
:100F100058F43091E8012191DC01AA53BE4FA30F90
:100F2000B11D2C930196F3CF8091E801680F609377
:100F3000E80180E0089581E0089582E00895CF936C
:100F4000DF931F92CDB7DEB769832091DF022223A2
:100F5000D1F02091DC02203240F021E030E0FC01B1
:100F60003383228380E090E015C08091DD02E82F7A
:100F7000F0E0EC5CFD4F998190838F5F8093DD0200
:100F80008093DC0205C061E0CE0101960E947707E4
:100F900081E090E00F90DF91CF91089542E00C94B2
:100FA000721841E00C94721866EE72E084E190E0F1
:100FB0000E94D10761E872E084E390E00E94D107CB
:100FC00067EE72E088E190E00E94D10744E06CE2B5
:100FD00073E088E390E00E94721866E273E08CE1AF
:100FE00090E00E94CE0768E273E080E290E00E9409
:100FF000CE076AE273E084E290E00E94CE0760E2EE
:1010000073E088E290E00E94CE0762E273E08CE237
:1010100090E00E94CE0764E273E080E390E00E94DB
:10102000CE076EE173E080E490E00E94CE0764EEAC
:1010300072E080E590E00E94D10766E772E080E709
:1010400090E00E94D10765EE72E084E590E00E9496
:10105000D10744E06AE173E084E790E00E947218EF
:1010600064E173E088E590E00E94CE0766E173E0FA
:101070008CE590E00E94CE0768E173E080E690E0A6
:101080000E94CE076EE073E084E690E00E94CE07F7
:1010900060E173E088E690E00E94CE0762E173E0D1
:1010A0008CE690E00E94CE076CE073E08CE790E065
:1010B0000E94CE0762EE72E08CE890E00E94D107B9
:1010C0006CE672E08CEA90E00E94D10763EE72E079
:1010D00080E990E00E94D10744E068E073E080EB93
:1010E00090E00E94721862E073E084E990E00E9450
:1010F000CE0764E073E088E990E00E94CE0766E0E6
:1011000073E08CE990E00E94CE076CEF72E080EA19
:1011100090E00E94CE076EEF72E084EA90E00E94B9
:10112000CE0760E073E088EA90E00E94CE076AEFA5
:1011300072E088EB90E00E94CE0760EE72E088ECEF
:1011400090E00E94D10762E672E088EE90E00E9493
:10115000D10761EE72E08CEC90E00E94D10744E090
:1011600066EF72E08CEE90E00E94721860EF72E021
:1011700080ED90E00E94CE0762EF72E084ED90E097
:101180000E94CE0764EF72E088ED90E00E94CE07E7
:101190006AEE72E08CED90E00E94CE076CEE72E099
:1011A00080EE90E00E94CE076EEE72E084EE90E05A
:1011B0000E94CE0768EE72E084EF90E00C94CE07B8
:1011C000662321F081E0623009F080E008951092FA
:1011D000830210928402109285021092860210926D
:1011E00080021092820281E0809381029091E70256
:1011F000911101C080E080937F0210927B021092D7
:101200007C0210927D0210927E0210927702109260
:1012100078021092790210927A026091E6020E949E
:10122000E0088093580281E0809376029091E50275
:10123000911101C080E080937502109271021092AA
:101240007202109273021092740210926D02109248
:101250006E0210926F02109270026091E4020E947E
:10126000E0088093570281E080936C029091E30242
:10127000911101C080E080936B021092670210927E
:1012800068021092690210926A0210926302109230
:10129000640210926502109266026091E2020E945E
:1012A000E0088093560281E0809362029091E1020F
:1012B000911101C080E08093610210925D02109252
:1012C0005E0210925F021092600210925902109218
:1012D0005A0210925B0210925C026091E0020E943E
:1012E000E0088093550208950E94E70885E891E0A0
:1012F0000C941705CF92DF92EF92FF921092E602C4
:1013000081E0809381021092E7029CEDC92E95E066
:10131000D92EE12CF12CC0922C03D0922D03E09217
:101320002E03F0922F032CE330E030932B03209315
:101330002A0344EB50E0509325034093240310927A
:101340001F0310921E031092230310922203109287
:101350002103109220031092290310922803109267
:101360002703109226031092E40280937602809362
:10137000E502C0921A03D0921B03E0921C03F09284
:101380001D033093190320931803509313034093C4
:10139000120330930D0320930C031092110310924B
:1013A000100310920F0310920E0310921703109265
:1013B000160310921503109214031092E202809308
:1013C0006C021092E302C0920803D0920903E092EB
:1013D0000A03F0920B0348E750E050930103409357
:1013E000000350930703409306031092FF021092EC
:1013F000FE021092FD021092FC0210920503109260
:10140000040310920303109202033093FB02209313
:10141000FA021092E002809362028093E102C0928D
:10142000F602D092F702E092F802F092F90250939D
:10143000EF024093EE025093F5024093F4021092B3
:10144000ED021092EC021092EB021092EA0210925E
:10145000F3021092F2021092F1021092F002309315
:10146000E9022093E802FF90EF90DF90CF900C9478
:10147000D40766EE72E084E190E00E94140561E812
:1014800072E084E390E00E94140567EE72E088E168
:1014900090E00E94140544E06CE273E088E390E081
:1014A0000E944B1866E273E08CE190E00E94110507
:1014B00068E273E080E290E00E9411056AE273E066
:1014C00084E290E00E94110560E273E088E290E01F
:1014D0000E94110562E273E08CE290E00E94110527
:1014E00064E273E080E390E00E9411056EE173E036
:1014F00080E490E00E94110564EE72E080E590E0E7
:101500000E94140566E772E080E790E00E941405EF
:1015100065EE72E084E590E00E94140544E06AE123
:1015200073E084E790E00E944B1864E173E088E583
:1015300090E00E94110566E173E08CE590E00E9466
:10154000110568E173E080E690E00E9411056EE00D
:1015500073E084E690E00E94110560E173E088E6A4
:1015600090E00E94110562E173E08CE690E00E9439
:1015700011056CE073E08CE790E00E94110562EECB
:1015800072E08CE890E00E9414056CE672E08CEA50
:1015900090E00E94140563EE72E080E990E00E9402
:1015A000140544E068E073E080EB90E00E944B1883
:1015B00062E073E084E990E00E94110564E073E06A
:1015C00088E990E00E94110566E073E08CE990E004
:1015D0000E9411056CEF72E080EA90E00E94110514
:1015E0006EEF72E084EA90E00E94110560E073E023
:1015F00088EA90E00E9411056AEF72E088EB90E0C3
:101600000E94110560EE72E088EC90E00E941405E3
:1016100062E672E088EE90E00E94140561EE72E0EE
:101620008CEC90E00E94140544E066EF72E08CEED2
:1016300090E00E944B1860EF72E080ED90E00E9415
:10164000110562EF72E084ED90E00E94110564EFF5
:1016500072E088ED90E00E9411056AEE72E08CED78
:1016600090E00E9411056CEE72E080EE90E00E9426
:1016700011056EEE72E084EE90E00E94110568EEB6
:1016800072E084EF90E00C941105CF92DF92EF921C
:10169000FF921092E60281E0809381021092E702AD
:1016A00095E0C92ED12CE12CF12CC0922C03D092C4
:1016B0002D03E0922E03F0922F0326E030E03093CA
:1016C0002B0320932A0342E150E0509325034093DB
:1016D000240310921F0310921E03109223031092F2
:1016E00022031092210310922003109229031092DA
:1016F000280310922703109226031092E40280938D
:1017000076028093E502C0921A03D0921B03E09206
:101710001C03F0921D033093190320931803509378
:1017200013034093120330930D0320930C03109284
:1017300011031092100310920F0310920E031092D7
:1017400017031092160310921503109214031092AF
:10175000E20280936C021092E302C0920803D092DE
:101760000903E0920A03F0920B034CE050E050931F
:101770000103409300035093070340930603109224
:10178000FF021092FE021092FD021092FC021092D3
:101790000503109204031092030310920203309386
:1017A000FB022093FA021092E0028093620280937F
:1017B000E102C092F602D092F702E092F802F092B3
:1017C000F9025093EF024093EE025093F5024093DA
:1017D000F4021092ED021092EC021092EB021092C1
:1017E000EA021092F3021092F2021092F1021092A9
:1017F000F0023093E9022093E8020E94D4070E948D
:10180000390A0E94E7081092820280E991E0FF9075
:10181000EF90DF90CF900C941705CF92DF92EF926C
:10182000FF921092E60281E0809381021092E7021B
:1018300095E0C92ED12CE12CF12CC0922C03D09232
:101840002D03E0922E03F0922F0310921F031092AB
:101850001E0310922703109226032FE030E03093EE
:1018600029032093280310922B0310922A0310922D
:101870002103109220034AE050E050932303409349
:10188000220310922503109224031092E402809305
:1018900076028093E502C0921A03D0921B03E09275
:1018A0001C03F0921D0310920D0310920C03109272
:1018B00015031092140350931703409316031092CC
:1018C00019031092180310920F0310920E03309315
:1018D000110320931003109213031092120310921D
:1018E000E20280936C021092E302C0920803D0924D
:1018F0000903E0920A03F0920B031092FB0210928C
:10190000FA0210920303109202033093050320930E
:10191000040310920703109206031092FD02109226
:10192000FC025093FF024093FE02109201031092BA
:1019300000031092E002809362028093E102C09261
:10194000F602D092F702E092F802F092F9021092B9
:10195000E9021092E8021092F1021092F002509304
:10196000F3024093F2021092F5021092F4021092E8
:10197000EB021092EA023093ED022093EC021092F7
:10198000EF021092EE020E94390A0E94E7081092BC
:10199000820280E991E0FF90EF90DF90CF900C946D
:1019A00017050E947A090E94390A0E94E7081092DE
:1019B000820280E991E00C94170588E690E00C948F
:1019C000711E2F923F924F925F926F927F928F92F1
:1019D0009F92AF92BF92CF92DF92EF92FF920F93BE
:1019E0001F93CF93DF9300D0CDB7DEB79A8389835F
:1019F000662E942E722E17012801882021F060E0B7
:101A000080E00E94971E89819A810E94921E811017
:101A100035C08091830280FF08C0809182028823B4
:101A200021F0772011F080E201C08AE30E94D11EEC
:101A3000662019F087E790E002C085E790E00E94F9
:101A4000711E992019F083E790E002C081E790E0D1
:101A50000F900F90DF91CF911F910F91FF90EF901A
:101A6000DF90CF90BF90AF909F908F907F906F90BE
:101A70005F904F903F902F900C94711E80E20E94D7
:101A8000D11E662019F084E990E002C08FE890E052
:101A90000E94711E992019F08AE890E002C085E842
:101AA00090E00E94711E80918202882319F08FE7D6
:101AB00090E002C089E790E00E94711E0E94DD0C58
:101AC00061E080E00E94971E2AE0B201A1018BEA4A
:101AD00094E00E946F128091830280FF08C0809181
:101AE0008202882321F0772011F080E201C08AE38E
:101AF0000E94D11E2AE0B601A5018BEA94E00E9463
:101B00006F120E94DD0C0F900F90DF91CF911F910B
:101B10000F91FF90EF90DF90CF90BF90AF909F908C
:101B20008F907F906F905F904F903F902F900C948C
:101B3000DD0C8F92AF92BF92CF92DF92EF92FF9225
:101B40000F931F931092DF0380915402813431F47C
:101B50008091C4019091C501019707C0823451F46E
:101B60008091C4019091C50101969093C501809325
:101B7000C40106C0833221F41092C5011092C40141
:101B80008091C4019091C50197FF02C080E090E070
:101B90008E30910514F08DE090E09093C501809314
:101BA000C401009709F0A1C060E080E00E94971E88
:101BB00080918202882319F08AEC90E002C084ECC4
:101BC00090E00E94711E8AE991E00E94921EA0900E
:101BD0002C03B0902D03C0902E03D0902F03809142
:101BE000770290917802A0917902B0917A027C01FB
:101BF0008D0116950795F794E794812C2091810229
:101C00004091E602609158028DE991E00E94E10C5A
:101C100080E20E94D11EA0901A03B0901B03C090D6
:101C20001C03D0901D0380916D0290916E02A091D3
:101C30006F02B09170027C018D0116950795F794A3
:101C4000E794209176024091E402609157028FE977
:101C500091E00E94E10C61E080E00E94971E8CEB15
:101C600090E00E94711EA0900803B0900903C090FC
:101C70000A03D0900B038091630290916402A091BB
:101C80006502B09166027C018D0116950795F79467
:101C9000E79420916C024091E2026091560281EA41
:101CA00091E00E94E10C80E20E94D11EA090F60219
:101CB000B090F702C090F802D090F90280915902DA
:101CC00090915A02A0915B02B0915C027C018D015F
:101CD00016950795F794E794209162024091E002EF
:101CE0006091550283EA91E023C08130910519F596
:101CF000A0902C03B0902D03C0902E03D0902F0302
:101D00008091770290917802A0917902B0917A0245
:101D10007C018D0116950795F794E79488248394A8
:101D2000209181024091E6026091580285EA91E09B
:101D30000E94E10C47C18230910509F5A0901A0379
:101D4000B0901B03C0901C03D0901D0380916D02C6
:101D500090916E02A0916F02B09170027C018D0192
:101D600016950795F794E79488248394209176023A
:101D70004091E4026091570288EA91E0D9CF833024
:101D8000910509F5A0900803B0900903C0900A03DB
:101D9000D0900B038091630290916402A091650240
:101DA000B09166027C018D0116950795F794E79432
:101DB0008824839420916C024091E2026091560243
:101DC0008BEA91E0B5CF8430910509F5A090F60239
:101DD000B090F702C090F802D090F90280915902B9
:101DE00090915A02A0915B02B0915C027C018D013E
:101DF00016950795F794E7948824839420916202BE
:101E00004091E002609155028EEA91E091CF8530D9
:101E10009105A9F4E0907B02F0907C0220912003D0
:101E200030912103409122035091230360912403B8
:101E30007091250300917F0285EA91E08FC0863082
:101E40009105A9F4E0907B02F0907C02209126039A
:101E500030912703409128035091290360912A0370
:101E600070912B0300917F0285EA91E090C087304A
:101E70009105A9F4E0907102F090720220910E0396
:101E800030910F03409110035091110360911203A0
:101E9000709113030091750288EA91E05FC0883069
:101EA0009105A9F4E0907102F09072022091140360
:101EB0003091150340911603509117036091180358
:101EC000709119030091750288EA91E060C0893031
:101ED0009105A9F4E0906702F09068022091FC025D
:101EE0003091FD024091FE025091FF02609100038B
:101EF0007091010300916B028BEA91E02FC08A3050
:101F00009105A9F4E0906702F09068022091020325
:101F1000309103034091040350910503609106033F
:101F20007091070300916B028BEA91E030C08B3017
:101F30009105B9F4E0905D02F0905E022091EA0212
:101F40003091EB024091EC025091ED026091EE0273
:101F50007091EF02009161028EEA91E00E94DC1E16
:101F600031C00C97B9F4E0905D02F0905E022091D0
:101F7000F0023091F1024091F2025091F30260912F
:101F8000F4027091F502009161028EEA91E00E94E4
:101F9000431F18C060E080E00E94971E84EB90E031
:101FA0000E94711E8AEA90E00E94711E61E080E04A
:101FB0000E94971E61E080E00E94971E89E990E0F0
:101FC0000E94711E109254021F910F91FF90EF908A
:101FD000DF90CF90BF90AF908F900895CF92DF9217
:101FE000EF92FF920F931F93CF93DF93EC010E9428
:101FF000BF158E859F85089791F48C859D850897E0
:1020000011F40E94BC048A859B85089711F41092F4
:10201000820288859985089711F40E94E7086E85E9
:102020007F85888599856430710509F048C04C85A5
:102030005D854830510519F421E02093E6022A8598
:102040003B852830310519F4E2E0E093E602883060
:10205000910511F41092E6024430510519F4E1E0C3
:10206000E093E4022430310519F4E2E0E093E40265
:102070008430910511F41092E4024230510519F4B4
:10208000E1E0E093E2022230310519F4E2E0E0936E
:10209000E2028230910511F41092E20241305105C2
:1020A00019F441E04093E0022130310519F422E0B7
:1020B0002093E0028130910511F41092E0028E012C
:1020C00001581F4F892B51F48A859B85892B31F448
:1020D0008C859D85892B11F4672BB1F1F8018081E6
:1020E0009181A281B381892B8A2B8B2B41F40E9491
:1020F0000412D8016D937D938D939C931397F801EF
:10210000C080D180E280F380F4EFCF0EF1E0DF1EDB
:10211000E11CF11C0E9404126C157D058E059F05C3
:10212000C0F4D801CD90DD90ED90FC90B8ECCB0ED2
:10213000D11CE11CF11C0E940412C616D706E80649
:10214000F90638F480E040C0F80110821182128252
:102150001382CE010E94BF15FE01E25AFF4F60813B
:1021600070E0FE0140E050E08E01015A1F4F46171B
:10217000570744F7D8012C9130E080E090E08217B7
:102180009307F4F4A085B185082E02C0B695A795F3
:102190000A94E2F7A0FF12C0429FB001439F700D66
:1021A000529F700D1124C45ADF4FE881F9818E0FC0
:1021B0009F1FFC01E60FF71F808106C00196DFCF4D
:1021C0004F5F5F4F3296D3CFDF91CF911F910F9129
:1021D000FF90EF90DF90CF900895FC01E35BFF4FFD
:1021E000808191810E94EE0F813461F0823469F028
:1021F000843471F0833279F08A3281F0082E000C39
:10220000990B089583E090E0089584E090E00895AC
:1022100081E090E0089582E090E0089585E090E00C
:102220000895CF92DF92EF92FF920F931F93CF9377
:10223000DF936C017A018B01C0E0D0E0CE15DF05A1
:1022400089F0D8016D918D01D601ED91FC9101903D
:10225000F081E02DC6010995892B11F47E0102C0A1
:102260002196ECCFC701DF91CF911F910F91FF9085
:10227000EF90DF90CF900895FC01918D828D98179B
:1022800061F0828DDF01A80FB11D5D968C91928D5A
:102290009F5F9F73928F90E008958FEF9FEF089557
:1022A000FC01918D828D981731F0828DE80FF11D20
:1022B000858D90E008958FEF9FEF0895FC01918D3B
:1022C000228D892F90E0805C9F4F821B91098F7334
:1022D0009927089580E393E00E945E1121E0892B05
:1022E00009F420E0822F08950E94462BEF92FF927E
:1022F0000F931F93CF93DF93EC0181E0888F9B8D29
:102300008C8D981305C0E889F989808185FD24C0EA
:10231000F62E0B8D10E00F5F1F4F0F731127E02E6D
:102320008C8DE8120CC00FB607FCFACFE889F9894A
:10233000808185FFF5CFCE010E949E15F1CF8B8D58
:10234000FE01E80FF11DE35AFF4FF0820B8FEA897F
:10235000FB898081806207C0EE89FF896083E889FC
:10236000F98980818064808381E090E0DF91CF9162
:102370001F910F91FF90EF900895CF93DF93EC01A1
:10238000888D8823C9F0EA89FB89808185FD05C095
:10239000A889B9898C9186FD0FC00FB607FCF5CFCF
:1023A000808185FFF2CFA889B9898C9185FFEDCF17
:1023B000CE010E949E15E7CFDF91CF9108953FB7E0
:1023C000F8948091B6029091B702A091B802B091B2
:1023D000B90226B5A89B05C02F3F19F00196A11D93
:1023E000B11D3FBFBA2FA92F982F8827820F911DAB
:1023F000A11DB11DBC01CD0142E0660F771F881FF2
:10240000991F4A95D1F708952FB7F8946091B202B9
:102410007091B3028091B4029091B5022FBF0895DC
:102420001F920F920FB60F9211242F933F938F9309
:102430009F93AF93BF938091B2029091B302A0910A
:10244000B402B091B5023091B10223E0230F2D37D1
:1024500020F40196A11DB11D05C026E8230F0296A8
:10246000A11DB11D2093B1028093B2029093B302DB
:10247000A093B402B093B5028091B6029091B702D6
:10248000A091B802B091B9020196A11DB11D80932F
:10249000B6029093B702A093B802B093B902BF916D
:1024A000AF919F918F913F912F910F900FBE0F9001
:1024B0001F9018956115710579F0FB0101900020BE
:1024C000E9F73197AF01461B570BDC01ED91FC9109
:1024D0000280F381E02D099480E090E008954F920E
:1024E0005F926F927F92EF92FF920F931F93CF9321
:1024F000DF93CDB7DEB7A1970FB6F894DEBF0FBE5E
:10250000CDBF7C01FA01CB0119A2223008F42AE0E8
:102510008E010F5D1F4F422E512C612C712CBF017B
:10252000A30192010E94FC28F901CA01015011097E
:102530006A3014F4605D01C0695CD8016C93232B90
:10254000242B252B61F7B801C7010E945A12A196CE
:102550000FB6F894DEBF0FBECDBFDF91CF911F91B4
:102560000F91FF90EF907F906F905F904F90089544
:102570001F920F920FB60F9211242F933F934F93F8
:102580005F936F937F938F939F93AF93BF93EF93DB
:10259000FF9380E393E00E949E15FF91EF91BF911E
:1025A000AF919F918F917F916F915F914F913F91EB
:1025B0002F910F900FBE0F901F9018951F920F92A2
:1025C0000FB60F9211242F938F939F93EF93FF9346
:1025D000E0914003F09141038081E0914603F09146
:1025E000470382FD12C09081809149038F5F8F73F2
:1025F00020914A03821751F0E0914903F0E0E05D39
:10260000FC4F958F8093490301C08081FF91EF912A
:102610009F918F912F910F900FBE0F901F90189543
:1026200080E090E0892B29F00E946A1181110C94BE
:1026300000000895DC0126E0629FA00DB11D112469
:1026400090965C934E935F9721E091962C9391978F
:10265000FC01E459FF4F208131960190F081E02D7B
:10266000222331F0309749F0611107C0DC0102C02C
:10267000309719F05C968C910994089521E001C07F
:10268000220F6A95EAF7DC011C962C931C971A9688
:102690005C934E931997ED91FC910084F185E02DA8
:1026A00060E00994DC01ED91FC910284F385E02D5A
:1026B00041E0099581E090E0089508950895089516
:1026C000E091DB028091DA02E81730F4F0E0E654A2
:1026D000FD4F808190E008958FEF9FEF08959091D6
:1026E000DB028091DA02981750F4E92FF0E0E6540B
:1026F000FD4F208130E09F5F9093DB0202C02FEFFF
:102700003FEFC90108958091DA0290E02091DB0249
:10271000821B910908956F927F928F929F92AF9240
:10272000BF92CF92DF92EF92FF921F93CF93DF93EE
:102730001F92CDB7DEB73C01162FFC0186E0689FE3
:10274000E00DF11D112411A2878D90A1813091051A
:10275000F9F01CF4892B51F04FC082309105B1F192
:10276000039709F049C040E050E034C0442309F425
:1027700043C041E050E0C3010E941A130E940412BA
:10278000F301E85AFF4F608371838283938334C0DF
:1027900049830E940412F301E85AFF4FC080D180A0
:1027A000E280F3804B015C018C189D08AE08BF08E5
:1027B000729680819181A0E0B0E0498188159905E9
:1027C000AA05BB0518F442E050E004C0411114C052
:1027D00043E050E0612FC3010F90DF91CF911F9133
:1027E000FF90EF90DF90CF90BF90AF909F908F9031
:1027F0007F906F900C941A130F90DF91CF911F91DF
:10280000FF90EF90DF90CF90BF90AF909F908F9010
:102810007F906F900895862F0C94A21DEF92FF92E7
:102820000F931F93CF93DF937C018C01C0E0D0E026
:10283000F80186890E94A21D892B51F42696CC0F9F
:10284000DD1FCC0FDD1FCE0DDF1D8881998108C0F3
:1028500021960C5F1F4FC530D10551F780E090E005
:10286000DF91CF911F910F91FF90EF900895862FE8
:10287000642F0C94CB1D862F642F0C94FB1DCF92DC
:10288000DF92EF92FF920F931F93CF93DF9301E0BC
:1028900010E002C0000F111F6A95E2F77C012FE6DD
:1028A000E20EF11C6C01ECE7CE0ED11CF60140816A
:1028B00050E03197608170E0C7010E94D805C701E0
:1028C0000E946F13EC01F6018081823040F0C70155
:1028D0000E946F1320E030E0382FC22BD32BC0238F
:1028E000D12381E090E0C017D10711F080E090E0A3
:1028F000DF91CF911F910F91FF90EF90DF90CF90DC
:102900000895CF92DF92EF92FF920F931F93CF9390
:10291000DF938C0181E090E002C0880F991F6A95D7
:10292000E2F7E801C358DF4F442329F028813981B9
:10293000822B932B06C08095909528813981822324
:10294000932399838883C880D980F801E558FF4F85
:10295000808178019FE6E90EF11C91E09093DF02FF
:102960008093DE021092DD021092DC02D701ED911D
:10297000FC910190F081E02D6C2DC7010995F801C3
:10298000E458FF4F8081823048F0D701ED91FC91EF
:102990000190F081E02D6D2DC7010995C7010E94BE
:1029A0007B05C882D982DF91CF911F910F91FF9053
:1029B000EF90DF90CF900895FC0123812223C9F08E
:1029C0009181909569236083828191E09093DF02E9
:1029D0008093DE021092DD021092DC028DEC93E017
:1029E0000E949F078DEC93E00E947B05282F30E02A
:1029F00002C020E030E081E090E0232B11F080E085
:102A000090E00895EF92FF920F931F93CF938C0164
:102A1000FC01759684E0C0E060FF02C09081C92B84
:102A20006695815031968111F7CF413011F4F8014C
:102A30004489F8018585C82BC42B7801FEE0EF0E90
:102A4000F11CF80162896C2BC7010E94DC14F801AB
:102A5000628960956C23C701CF911F910F91FF9000
:102A6000EF900C94DC140F931F93CF93DF93062FFA
:102A70000F70423019F440E0602F10C0142F262F41
:102A8000EC0130E0B90184E0759567958A95E1F72E
:102A9000CE010E940215412F602FCE01DF91CF9110
:102AA0001F910F910C940215FC0184858823A9F0D5
:102AB000218532852115310519F4611106C007C041
:102AC0002130310521F4611102C0858701C01586CE
:102AD0006585CF010E960C94DC140895CF92DF9299
:102AE000EF92FF920F931F93CF93DF937C01262FDA
:102AF000972F8A018091DF02882391F0C62FD72F6C
:102B00006E01C40ED51ECC15DD0571F06991D7019B
:102B1000ED91FC910190F081E02DC7010995F3CF73
:102B2000642F822F0E947707C801DF91CF911F91F8
:102B30000F91FF90EF90DF90CF900895FC01848D6E
:102B4000DF01A80FB11DA35ABF4F2C91848D90E0D7
:102B500001968F739927848FA689B7892C93A089B2
:102B6000B1898C9180648C93938D848D981306C069
:102B70000288F389E02D80818F7D808308952F92D4
:102B80003F924F925F926F927F928F929F92AF92FD
:102B9000BF92CF92DF92EF92FF920F931F93CF934A
:102BA000DF93CDB7DEB72A970FB6F894DEBF0FBE1E
:102BB000CDBF9A8789870E94041229853A85205AB9
:102BC0003F4F3A832983D9010D911D912D913C915D
:102BD000AB01BC01401B510B620B730BE985FA85FD
:102BE000E859FF4F80819181A0E0B0E010E08417A8
:102BF0009507A607B70708F05FC169847A84FEE5E8
:102C00006F0E711CE984FA8424E6E20EF11CD301F4
:102C10008C911817A0F4E985FA8580819181F701DC
:102C2000A081B181A10FB11DFC012081318142E061
:102C30006C9189859A85F90109951F5FE8CF10E0AD
:102C400029843A84BFE52B0E311CE984FA84E6E638
:102C5000EE0EF11C812C912C5401839429853A8528
:102C60002C593F4F3C832B83F1018081181708F0CA
:102C70008DC0C12ED12CA985BA858D919C91F7016B
:102C8000A081B181AC0DBD1DFC012081318141E0ED
:102C90006C9189859A85F9010995A985BA858D91E7
:102CA0009C91F701A081B181AC0DBD1DFC01228179
:102CB000338140E06C9189859A85F9010995D501A8
:102CC000C401012E04C0880F991FAA1FBB1F0A94BC
:102CD000D2F7AC019C012095309500E0F301808192
:102CE000A985BA85ED91FC91081770F5802F90E0C9
:102CF000AB81BC816D917C912C01DB01A40DB51DD4
:102D00000480F581E02D6C9189859A852F83388721
:102D10004D835E830995440C551C2F8138854D8168
:102D20005E81E985FA85E40DF51D892B29F48085FE
:102D30009185842B952B04C08085918582239323D4
:102D4000918780870F5FCACFD7018D919C91DC015D
:102D5000AC0DBD1D0280F381E02D41E06C918985B1
:102D60009A850995A985BA85ED91FC91D7018D9138
:102D70009C91DC01AC0DBD1D0190F081E02D40E087
:102D80006C9189859A8509951F5F6ECFE984FA84D5
:102D9000FCE1EF0EF11C89859A85885A9F4FF70157
:102DA0002FEF3FEF43815481452B21F41082328372
:102DB000218315823696E817F907A1F7B12CC9844B
:102DC000DA842CE5C20ED11C86E0A82EF3018081A6
:102DD000B81608F059C0912C09851A850B0D111DE4
:102DE0000B0D111D085F1F4FD1018C91981608F033
:102DF00049C0D8014D915C91092C02C05695479568
:102E00000A94E2F741705527B89EC0011124890D3C
:102E1000911DD601ED91FC91E80FF91FA081E98584
:102E2000FA8560E0258D368D2817390721F4417029
:102E300089859A851CC06F5F36966A3099F7452B55
:102E4000F9F0F70160E070E02081211113C0A69E27
:102E5000F001A79EF00D112429853A85E20FF31F9A
:102E6000A48F968F858F10A2178E41E0C9010E9412
:102E70008B1306C06F5F7F4F36966A30710521F75E
:102E80009394B2CFB394A2CFE985FA85B1968985A0
:102E90009A85835A9F4F10E02081211111E03696C8
:102EA000E817F907C9F70E940412A981BA816D9346
:102EB0007D938D939C931397812F2A960FB6F89448
:102EC000DEBF0FBECDBFDF91CF911F910F91FF905D
:102ED000EF90DF90CF90BF90AF909F908F907F90BA
:102EE0006F905F904F903F902F900895DC01ED918F
:102EF000FC910284F385E02D40E009940F931F9329
:102F0000CF93DF93EC01423018F08C8188608C8382
:102F10004F836887222329F0413019F48C81846023
:102F20008C8364E670E080E090E00E94371E6C8144
:102F300064FD31C0E881F9810284F385E02D42E02F
:102F400063E0CE0109958BE496E40197F1F7E881FF
:102F5000F9810284F385E02D42E063E0CE0109951A
:102F600003E512E0C8010197F1F7E881F9810284D5
:102F7000F385E02D42E063E0CE010995C801019799
:102F8000F1F7E881F9810284F385E02D42E062E007
:102F9000CE01099517C06062CE010E9476178BE4BE
:102FA00096E40197F1F76C816062CE010E9476177A
:102FB00003E512E0C8010197F1F76C816062CE0170
:102FC0000E947617C8010197F1F76C816062CE010B
:102FD0000E9476178BEE90E00197F1F784E08D83E5
:102FE0006CE0CE010E94761761E0CE010E94761758
:102FF0008BE39FE10197F1F782E08E8366E0CE01DB
:103000000E947617E881F9810084F185E02D6FEF49
:10301000CE01DF91CF911F910F910994FF920F93F1
:103020001F93CF93DF93EC01162F042FF22E8B8585
:10303000888B8DEC93E00E942306888991E0909321
:10304000DF028093DE021092DD021092DC028DEC32
:1030500093E00E947B0591E0811190E0998B992388
:1030600029F08DEC93E00E946F138E878989882365
:1030700039F01F861C8260E0CE010E960E94DC149F
:103080002F2D402F612FCE01DF91CF911F910F91F6
:10309000FF900C947E17CF92DF92FF920F931F93B5
:1030A000CF93DF931F92CDB7DEB78C010D5F1F4F1B
:1030B000F62E6B018C2D8F19841758F4C8014983A3
:1030C0000E94472EF60181936F010F5F1F4F4981C8
:1030D000F1CF0F90DF91CF911F910F91FF90DF9073
:1030E000CF900895CF92DF92FF920F931F93CF93CB
:1030F000DF931F92CDB7DEB78C010D5F1F4FF62E09
:103100006B018C2D8F19841758F4F60161916F01B2
:10311000C80149830E944F2E0F5F1F4F4981F1CF95
:1031200060E080E090E00F90DF91CF911F910F91D0
:10313000FF90DF90CF900C944F2ECF93DF931F9290
:10314000CDB7DEB769830B96FC018591949100970A
:1031500029F0BE016F5F7F4F0E94D1070F90DF9172
:10316000CF910895833081F028F4813099F0823036
:10317000A1F008958730A9F08830B9F08430D1F4F7
:10318000809180008F7D03C0809180008F77809335
:103190008000089584B58F7702C084B58F7D84BD8B
:1031A00008958091B0008F7703C08091B0008F7D2B
:1031B0008093B000089540E150E060E270E088E064
:1031C00094E00E944B2B80911A04813039F48FE4F3
:1031D0009EE6909309048093080409C08FE496E664
:1031E000A6E68093080490930904A0930A0420E1C2
:1031F00030E040E050E061E070E088E094E00C9462
:10320000AA1F1F93CF93DF93182FD92FC62F40E10A
:1032100050E060E270E088E094E00E944B2BE12FE8
:10322000FD2FEC0FF11DEC0FF11D659174916F5F97
:103230007F4F4FE050E088E094E00E94722B20E145
:1032400030E040E050E061E070E088E094E0DF9141
:10325000CF911F910C94AA1F0F931F93CF93DF93CD
:10326000EC01FC0170961491113009F098C0109394
:10327000E00340E150E0BC0188E094E00E94722B42
:1032800020E130E040E050E060E070E088E094E071
:103290000E94AA1FFE01729685919491FC0164918F
:1032A0003996A591B491611104C08C9180931A0450
:1032B0006FC08FEF860F823040F48D919C911197F3
:1032C0009093200480931F0463C08DEF860F82309B
:1032D00070F40D911D912D913C91139700931B0457
:1032E00010931C0420931D0430931E0451C06930B8
:1032F00031F5FD013396C591D491FD0185919491ED
:10330000FC018081FD013296A4919E0160E090E075
:103310009A1761F0F90145915491FA0144914813CB
:1033200001C0692F9F5F2E5F3F4FF2CF60931A0459
:10333000CE01DF91CF911F910F910C9401196A304A
:10334000D1F4FD013196C591D491FD01A4918881FC
:1033500090E002C095958795AA95E2F780FF03C09B
:1033600010931A0402C010921A04DF91CF911F919A
:103370000F910C94DB180D911D912D913C91139799
:1033800000932104109322042093230430932404F7
:10339000CD01DF91CF911F910F910C941520111148
:1033A00034C061112EC02091E5033091E6038217ED
:1033B000930739F18091E9039091EA03892B79F021
:1033C0008091EB039091EC03892B61F08091ED03E8
:1033D0009091EE03892B79F482E090E005C080E0C3
:1033E00090E002C081E090E0880F991FFC01E75156
:1033F000FC4F31832083D093E603C093E503109202
:10340000030460910304CE0114C01230D9F4629613
:10341000FE0185919491009711F0FC01099580912E
:10342000DF03882361F0609103048091E5039091AC
:10343000E603DF91CF911F910F910C94B21F81E0B1
:103440008093E203DF91CF911F910F9108952F9206
:103450003F924F925F926F927F928F929F92AF9224
:10346000BF92CF92DF92EF92FF920F931F93CF9371
:10347000DF93CDB7DEB764970FB6F894DEBF0FBE0B
:10348000CDBF042F4296FC0185919491FC011491CB
:103490003596C590D590E590F490FC013196259134
:1034A000359145915491298B3A8B4B8B5C8B6430D1
:1034B00009F426C3633008F052C241E0613009F4D8
:1034C00040E0193029F5FC01399625913491F90134
:1034D00032969491319625913491EFEFE90F9091C6
:1034E0001A04442339F0911103C0E0931A040AC06E
:1034F000915006C09E1303C010921A0403C09F5F30
:1035000090931A0460911A04C9010E94011901C321
:103510001A3059F481E090911A04913009F480E056
:1035200080931A040E94DB18F4C2442319F08FEF31
:103530009FEF02C081E090E02091180430911904BF
:10354000829F5001839FB00C929FB00C1124B50153
:103550000B2C000C880B990B0E94242A163029F49E
:1035600020E030E040E251E40DC0173029F420E0C3
:1035700030E048EC52E406C0183031F420E030E08E
:103580004AE754E40E94B02949885A886B887C88AD
:103590002DEF200F2230B8F4109225049B01AC01CE
:1035A000609121047091220480912304909124045D
:1035B0000E943F2960932104709322048093230486
:1035C000909324041DC00334C9F410922104109276
:1035D0002204109223041092240410921B041092CF
:1035E0001C0410921D0410921E04109220041092CC
:1035F0001F0410921A04A12CB12CC8C0A12CB12C0C
:1036000000530A3008F0C2C080912504823008F4CB
:1036100042C080911A04880F982F990F990F890F33
:1036200080931A0420911F04309120044AE0429FA5
:10363000C001439F900D11249093200480931F0498
:1036400020911B0430911C0440911D0450911E04D4
:10365000AAE0B0E00E941E2960931B0470931C0432
:1036600080931D0490931E0420E030E040E251E47A
:10367000609121047091220480912304909124048C
:103680000E94D92A6093210470932204809323041A
:103690009093240418C08130B1F410921B0410924E
:1036A0001C0410921D0410921E041092200410920B
:1036B0001F0410921A0410922104109222041092F6
:1036C00023041092240480911A04800F80931A041A
:1036D00080911F0490912004800F911D90932004ED
:1036E00080931F0480911B0490911C04A0911D04E1
:1036F000B0911E04800F911DA11DB11D80931B046C
:1037000090931C04A0931D04B0931E04163061F422
:10371000602F000F770B880B990B0E94242A20E062
:1037200030E040E251E40DC0173011F5602F000F7A
:10373000770B880B990B0E94242A20E030E048EC9C
:1037400052E40E94B0299B01AC0160912104709168
:10375000220480912304909124040E943F296093C5
:103760002104709322048093230490932404A6C020
:10377000183061F4602F000F770B880B990B0E94B3
:10378000242A20E030E04AE754E4DBCF111121C0C5
:10379000C114D104E104F10431F441145104610471
:1037A000710409F4D3C080911A0490E0A0E0B0E065
:1037B000481659066A067B0614F4C98807C0C8165D
:1037C000D906EA06FB0614F46C017D01C0921A04C6
:1037D000BDC0113011F0123089F580911F04909115
:1037E00020048A0D9B1DC114D104E104F104D1F41D
:1037F0004114510461047104A9F49093200480934E
:103800001F040DC08C159D05AE05BF0514F4D7012E
:10381000C601282F892F20931F04809320048FE155
:1038200094E099C0092E000CAA0BBB0B4816590650
:103830006A067B063CF729898A89EDCF133011F09F
:103840001430E1F5A501BB0C660B770B80911B04CE
:1038500090911C04A0911D04B0911E04840F951F2B
:10386000A61FB71FC114D104E104F10471F441147F
:1038700051046104710449F480931B0490931C0467
:10388000A0931D04B0931E0416C0481659066A067C
:103890007B064CF02C013D018C159D05AE05BF0546
:1038A00014F42601370140921B0450921C046092CC
:1038B0001D0470921E048BE194E04DC0C114D1042C
:1038C000E104F10431F4411451046104710409F478
:1038D00040C02090210430902204809023049090D6
:1038E0002404C301B2010E94242A762EA72EB82EEA
:1038F000092F262F372F482F592FB101C4010E94BD
:10390000D42A1816B4F0C701B6010E94242A762ED4
:10391000A72EB82E092F262F372F482F592FB10148
:10392000C4010E94AB2987FD04C0722CA32CB82CC3
:10393000092D872D9A2DAB2DB02F809321049093C4
:103940002204A0932304B093240403C08AE194E0EA
:1039500002C081E294E0612F0E941520DAC063303A
:1039600009F0D7C0FC013996A591B491193099F4AA
:10397000FD0133962591349140911A04F901E40F29
:10398000F11DE40FF11D65917491FB016491FD013E
:10399000A591B4912AC01A3021F5FD0131966591A7
:1039A0007491FD01A49120911A04FB01B08122239E
:1039B00049F041E050E001C0440FAA95EAF74B2BD3
:1039C00040830AC021E030E001C0220FAA95EAF747
:1039D00020952B23FB012083FB0160810E949D1811
:1039E0008FC0111104C060911A046C93F7CF12308C
:1039F000A9F420911F04309120042D933C93388B1F
:103A00002F87FC013B9685919491009709F478C02B
:103A1000BE01615F7F4F0E94CE0772C01130A1F4DA
:103A200020911F04309120042D933C933E872D87D5
:103A3000FC013B9685919491009709F461C042E0A6
:103A4000BE01635F7F4F5AC01430E9F440911B04FC
:103A500050911C0460911D0470911E044D935D9360
:103A60006D937C93139749875A876B877C87FC01FA
:103A70003B9685919491009709F442C044E0BE01C1
:103A8000675F7F4F3BC01330E1F440911B045091BE
:103A90001C0460911D0470911E044D935D936D9301
:103AA0007C9313974D835E836F837887FC013B96ED
:103AB00085919491009721F144E0BE016B5F7F4FA7
:103AC0001DC01530E8F0409121045091220460910E
:103AD0002304709124044D935D936D937C9313970D
:103AE00049835A836B837C83FC013B968591949137
:103AF000009731F044E0BE016F5F7F4F0E94721863
:103B00001092E00361E08091E5039091E6030E944A
:103B10002C1964960FB6F894DEBF0FBECDBFDF91AF
:103B2000CF911F910F91FF90EF90DF90CF90BF90BA
:103B3000AF909F908F907F906F905F904F903F904D
:103B40002F900895CF93DF93282F30E0F901EA5E9C
:103B5000FE4F8491F901EE5FFE4FD491F901E251DD
:103B6000FF4FC491CC2391F081110E94B218EC2F29
:103B7000F0E0EE0FFF1FEC51FF4FA591B491EC91D7
:103B8000ED2381E090E021F480E002C080E090E04D
:103B9000DF91CF9108951F93CF93DF93282F30E0CB
:103BA000F901EA5EFE4F8491F901EE5FFE4FD49178
:103BB000F901E251FF4FC491CC23C9F0162F8111B6
:103BC0000E94B218EC2FF0E0EE0FFF1FE652FF4FFD
:103BD000A591B4918FB7F894111105C09C91ED2F68
:103BE000E095E92302C0EC91ED2BEC938FBFDF91C0
:103BF000CF911F910895CF93DF9390E0FC01EE5F8A
:103C0000FE4F2491FC01E251FF4F8491882361F122
:103C100090E0880F991FFC01E053FF4FC591D491AC
:103C2000FC01E652FF4FA591B491611109C09FB705
:103C3000F8948881209582238883EC912E230BC0F1
:103C4000623061F49FB7F8943881822F8095832386
:103C50008883EC912E2B2C939FBF06C08FB7F894CE
:103C6000E8812E2B28838FBFDF91CF9108958F920B
:103C70009F92AF92BF92CF92DF92EF92FF926B0131
:103C80007C010E94DF114B015C01C114D104E104ED
:103C9000F104F1F00E94DF11DC01CB0188199909D0
:103CA000AA09BB09883E9340A105B10570F321E044
:103CB000C21AD108E108F10888EE880E83E0981E48
:103CC000A11CB11CC114D104E104F10419F7DDCF2A
:103CD000FF90EF90DF90CF90BF90AF909F908F902C
:103CE00008950F931F93CF93DF938C01C0E0D0E032
:103CF000F801EC0FFD1F6491662371F0E091AB04B5
:103D0000F091AC040190F081E02D8BEA94E00995EC
:103D1000892B11F02196ECCFCE01DF91CF911F912D
:103D20000F910895BC018BEA94E00C945A12CF9342
:103D3000DF93CDB7DEB728970FB6F894DEBF0FBE7E
:103D4000CDBF1D8290E49E8324E12F8324E5288744
:103D500019829A8390E19B8390E59C839091B204B1
:103D6000691710F06FEF690F4091B304262F30E010
:103D7000FE01E20FF31F403121F4943011F49181E0
:103D800001C09581682F690F60688BEA94E02896DE
:103D90000FB6F894DEBF0FBECDBFDF91CF910C946C
:103DA0007617E091AB04F091AC040190F081E02D26
:103DB000682F8BEA94E009948F929F92AF92BF9202
:103DC000CF92DF92EF92FF920F93CF93DF935C013C
:103DD000EB016A01490160E080E00E94971EC50185
:103DE0000E94921E80E20E94D11E84EB91E00E940C
:103DF000921E80E20E94D11EA40160E070E02AE0E1
:103E00008BEA94E00E946F1288EB91E00E94921E70
:103E1000A60160E070E02AE08BEA94E00E946F1255
:103E20008AEB91E00E94921EAE0160E070E02AE011
:103E30008BEA94E00E946F128CEB91E00E94921E3C
:103E40000E94DD0C61E080E00E94971E01110CC011
:103E5000A70160E070E02AE08BEA94E00E946F1214
:103E60008CEB91E00E94921E0E94DD0CDF91CF91BD
:103E70000F91FF90EF90DF90CF90BF90AF909F9009
:103E80008F900C94DD0C8F929F92AF92BF92CF9245
:103E9000DF92EF92FF920F93CF93DF935C01EB01E0
:103EA0006A01490160E080E00E94971EC5010E94FE
:103EB000921E80E20E94D11E8EEB91E00E94921E23
:103EC00080E20E94D11EA40160E070E02AE08BEA4B
:103ED00094E00E946F1288EB91E00E94921EA6016E
:103EE00060E070E02AE08BEA94E00E946F128AEBB7
:103EF00091E00E94921EAE0160E070E02AE08BEA41
:103F000094E00E946F128CEB91E00E94921E0E943E
:103F1000DD0C61E080E00E94971E002361F0A701A4
:103F200060E070E02AE08BEA94E00E946F128CEB74
:103F300091E00E94921E0E94DD0CDF91CF910F91C3
:103F4000FF90EF90DF90CF90BF90AF909F908F90B9
:103F50000C94DD0CE0910404F0910504309709F015
:103F600009940895CF92DF92EF92FF920F931F93DF
:103F7000CF93DF93FC017196C491C1503196C590E7
:103F8000D490E62EF12CF701EE0FFF1FEC0DFD1D76
:103F9000859194919093E4038093E30300E010E013
:103FA000D0E040E150E060E270E088E094E00E9400
:103FB0004B2B21E030E040E050E00115110529F4E1
:103FC00060E070E082EC91E004C061E070E08BE9B9
:103FD00091E00E94AA1FF801EE0DFF1DCE17DF072A
:103FE00064F0EE0FFF1FEC0DFD1D6591749140E133
:103FF00050E088E094E00E94722B20E130E041E044
:1040000050E0B80188E094E00E94AA1F0130110539
:1040100019F001E010E0C5CFDF91CF911F910F9112
:10402000FF90EF90DF90CF9008950F931F93CF9361
:104030008C01C62F40E150E060E270E088E094E03F
:104040000E944B2BC730D9F1C830D9F1C11107C03C
:10405000F80180814AE068E074E090E013C0C1306C
:1040600049F44AE068E074E0F801808191810E949F
:104070007B2B35C0C23049F44AE068E074E0F801B7
:10408000808191810E94B72B2AC0C33059F4F80176
:1040900060817181828193812AE048E054E00E942E
:1040A000862B1DC0C43079F4F80160817181828152
:1040B00093812AE048E054E00E94952B10C022E052
:1040C00003C023E001C021E042E0420FF80160811B
:1040D00071818281938108E014E00E94522B20E1DB
:1040E00030E040E050E061E070E088E094E0CF91A3
:1040F0001F910F910C94AA1FCF93DF9300D01F92B2
:10410000CDB7DEB7789484B5826084BD84B5816014
:1041100084BD85B5826085BD85B5816085BD809192
:104120006E00816080936E0010928100809181000A
:104130008260809381008091810081608093810002
:10414000809180008160809380008091B1008460C4
:104150008093B1008091B00081608093B000809125
:104160007A00846080937A0080917A0082608093E4
:104170007A0080917A00816080937A0080917A0041
:10418000806880937A001092C100E0914003F09122
:10419000410382E08083E0913C03F0913D03108273
:1041A000E0913E03F0913F038FEC8083109248032F
:1041B000E0914403F091450386E08083E09142035F
:1041C000F0914303808180618083E0914203F0910C
:1041D0004303808188608083E0914203F091430330
:1041E000808180688083E0914203F0914303808165
:1041F0008F7D808380E090E00E94472E811103C074
:104200000E94390A02C00E947A090E94E7088DECD8
:1042100093E00E94230688E091E0909385048093C8
:10422000840487E994E00E9423064091A40450E0AE
:104230006091A30470E087E994E00E94D80587E9C3
:1042400094E00E946F139093A6048093A50480913C
:10425000A404823088F087E994E00E946F1320E084
:1042600030E0382F8091A5049091A604822B932BE7
:104270009093A6048093A50420E042E060E18BEADD
:1042800094E00E940E188EE395E0909305048093CD
:10429000040489E99DE0909307048093060481E07B
:1042A0008093DF030E94990D61E08DE00E94FB1D69
:1042B00061E089E00E94CB1D61E08AE00E94CB1D95
:1042C00061E08BE00E94CB1D61E08CE00E94CB1D81
:1042D00061E089E00E94FB1D61E08AE00E94FB1D15
:1042E00061E08BE00E94FB1D61E08CE00E94FB1D01
:1042F00060E087E00E94FB1D61E087E00E94CB1D2B
:1043000061E084E00E94CB1D61E084E00E94FB1D1F
:10431000EE24E394F12C0AE0202E312C00E11EE083
:1043200088E294E00E94EE0F8A3221F4BB24B39419
:10433000B092DF038091910281110DC00E9404129E
:1043400060938D0270938E0280938F0290939002FF
:1043500021E0209391028091E203882371F0809103
:10436000DF03882351F01092E203609103048091EF
:10437000E5039091E6030E94B21F8091DB03811157
:1043800052C08091DC038E3008F08E5087708064BC
:1043900080937C0080917A00806480937A00809181
:1043A0007A0086FDFCCF209178008091790030E082
:1043B000382B6091DD037091DE038091870290912C
:1043C0008802821B930B97FF03C0919581959109F9
:1043D000681779072CF4309388022093870220C055
:1043E000E9EDF3E080E090E046895789DA01A61B09
:1043F000B70BA217B3077CF4460F571F24173507D6
:1044000054F4880F991F880F991FFC01EF50FC4F3F
:10441000C080D18013C0019634968530910521F774
:10442000C12CD12C0BC0E091D903F091DA0301909B
:10443000F081E02D89ED93E009956C0180918C026B
:1044400090E0C816D906B9F0C0928C0210928B0287
:104450000E94041260938D0270938E0280938F02EB
:104460009093900210928A0210928902F09219049D
:10447000E0921804F6C00E94041280908D02909081
:104480008E02A0908F02B0909002DC01CB018819BF
:104490009909AA09BB0989379105A105B10508F455
:1044A000E0C00E94041260938D0270938E0280938C
:1044B0008F0290939002C114D10421F08091DF0308
:1044C00081110BC010928A0210928902F092190495
:1044D000E092180410928B02C4C035E0C316D104D8
:1044E00019F481E08093E1038091E103882309F4CA
:1044F000B8C080918B0290E0C816D906C1F48091B3
:10450000890290918A02019690938A02809389028F
:10451000B1010E94E828892B81F0809118049091C4
:1045200019040296909319048093180406C0C0924F
:104530008B02F0921904E09218044C2D2091E003B4
:10454000E5E0CE16D10419F0CA94CD28B1F48091DB
:10455000E3039091E403222321F063E00E94271AF1
:1045600009C060E0009721F48091E7039091E8038F
:104570000E942C191092250474C0433031F044304D
:1045800031F0423031F464E005C061E003C062E024
:1045900001C060E0222361F0809125048F5F809349
:1045A00025048091E3039091E4030E94271A59C0E7
:1045B0008FEF860F823018F0643009F052C02091DE
:1045C000E5033091E603F9017196E491E15064301E
:1045D00081F51092E4031092E3038091ED03909132
:1045E000EE03009781F48091EB039091EC03009728
:1045F00069F48091E9039091EA03009709F4C9C135
:1046000020E030E005C022E030E002C021E030E0F0
:10461000220F331FF901E751FC4F11821082909352
:10462000E6038093E5031092030461E00E942C19D5
:1046300018C090910304613011F061E001C06FEF88
:10464000690FE61730F481E06F3F09F080E0682FD2
:1046500061956F3F09F46E2F60930304C9010E94B6
:10466000B21F0E9404128090A9029090AA02A0900A
:10467000AB02B090AC024090AD025090AE026090A0
:10468000AF027090B002481459046A047B0430F001
:10469000641575058605970538F00CC06415750519
:1046A0008605970508F44AC1681579058A059B05B2
:1046B00008F044C10E9404126093A9027093AA02F8
:1046C0008093AB029093AC02DC01CB0188519C4FEC
:1046D000AF4FBF4F8093AD029093AE02A093AF0255
:1046E000B093B002409183025091840260918502A0
:1046F000709186022AE080E393E00E946F1261EBE2
:1047000071E080E393E00E945A1280918202E0916E
:104710001E03F0911F03FB83EA83C0900C03D0902B
:104720000D034091FA025091FB026091E8027091F2
:10473000E902882309F493C02091810280918302C9
:1047400090918402A0918502B0918602211136C118
:1047500080902C0390902D03A0902E03B0902F03F7
:1047600040907702509078026090790270907A02BF
:104770007694679457944794481459046A047B04C8
:1047800008F0C3C1209176022111C9C180901A039B
:1047900090901B03A0901C03B0901D0340906D02ED
:1047A00050906E0260906F027090700276946794E1
:1047B00057944794481459046A047B0408F054C27F
:1047C00020916C0221115AC2809008039090090335
:1047D000A0900A03B0900B034090630250906402D3
:1047E000609065027090660276946794579447943F
:1047F000481459046A047B0408F0E5C2209162025F
:104800002111EBC28090F6029090F702A090F8027E
:10481000B090F9024090590250905A0260905B02A9
:1048200070905C02769467945794479448145904A6
:104830006A047B0408F076C30196A11DB11D809324
:10484000830290938402A0938502B0938602892B01
:104850008A2B8B2B21F4BB24B394B092800240901E
:1048600083025090840260908502709086022A81B3
:104870003B81C901A0E0B0E0481659066A067B06F4
:1048800008F45AC3A0907F02C601A0E0B0E0481629
:1048900059066A067B0608F455C3B0907502CA0132
:1048A000A0E0B0E0481659066A067B0608F450C33B
:1048B000C0906B02CB01A0E0B0E0481659066A0632
:1048C0007B0608F44BC3D0906102609158028DE0E2
:1048D0000E94CB1D6091E6028A2D0E94E008A82E5E
:1048E000809358026091E4028B2D0E94E008B82E5C
:1048F000809357026091E2028C2D0E94E008C82E3E
:10490000809356026091E0028D2D0E94E008D82E1F
:104910008093550261E06A2589E00E94CB1D61E029
:104920006B258AE00E94CB1D61E06C258BE00E9424
:10493000CB1D61E06D258CE00E94CB1D8091E103D1
:10494000882321F08091DF03811120C00E94990DFE
:10495000F1E0F093940488E294E00E94BF1588236C
:1049600009F402C380914904882309F4FDC28091AF
:10497000470490914804019709F0F6C280914404DD
:1049800090915402911102C0809354020E9410131E
:10499000C7CC8091E7039091E8039093E60380935E
:1049A000E503109203041092E103E0910604F091F4
:1049B0000704309709F455CE099553CE2A813B81DF
:1049C0002901612C712C84159505A605B70528F4DD
:1049D00020918002222309F4BBCE30917F023983DB
:1049E0003323E9F02091260330912703209F4001D3
:1049F000219F900C309F900C11242091280330911E
:104A00002903FCE3BF2EB29EF001B39EF00D1124EA
:104A1000E80DF91D20912A0330912B031CC0209131
:104A2000200330912103209F4001219F900C309F53
:104A3000900C11242091220330912303ECE3BE2E2D
:104A4000B29EF001B39EF00D1124E80DF91D2091E6
:104A50002403309125032E0F3F1F2901612C712C57
:104A60004092A5025092A6026092A7027092A802FC
:104A700080907B0290907C02A0907D02B0907E029C
:104A80004090A5025090A6026090A7027090A802E4
:104A900084149504A604B70410F1298131E023277A
:104AA00020937F0210927B0210927C0210927D0272
:104AB00010927E02409077025090780260907902C6
:104AC00070907A02EFEF4E1A5E0A6E0A7E0A4092EA
:104AD0007702509278026092790270927A02409046
:104AE0007B0250907C0260907D0270907E02FFEF0E
:104AF0004F1A5F0A6F0A7F0A40927B0250927C0233
:104B000060927D0270927E0223CE89288A288B28AB
:104B100009F438CE1092810210927F0233CE260122
:104B2000612C712C84159505A605B70528F42091F4
:104B30008002222309F42ACEB0907502B982BB20EC
:104B4000E9F02091140330911503209F4001219F2B
:104B5000900C309F900C1124209116033091170374
:104B6000FCE3BF2EB29EF001B39EF00D1124E80DC0
:104B7000F91D20911803309119031CC020910E03D8
:104B800030910F03209F4001219F900C309F900C8B
:104B900011242091100330911103ECE3BE2EB29E3C
:104BA000F001B39EF00D1124E80DF91D20911203C0
:104BB000309113032E0F3F1F2901612C712C40925D
:104BC000A1025092A2026092A3027092A40280906D
:104BD000710290907202A0907302B09074024090A3
:104BE000A1025090A2026090A3027090A4028414CB
:104BF0009504A604B70410F1298131E023272093FE
:104C00007502109271021092720210927302109249
:104C1000740240906D0250906E0260906F0270902E
:104C20007002EFEF4E1A5E0A6E0A7E0A40926D0223
:104C300050926E0260926F02709270024090710208
:104C4000509072026090730270907402FFEF4F1ADE
:104C50005F0A6F0A7F0A409271025092720260925C
:104C600073027092740292CD89288A288B2809F4E5
:104C7000A7CD1092760210927502A2CD2A01612C66
:104C8000712C84159505A605B70528F4209180029E
:104C9000222309F499CDB0906B02B982BB20E9F0D0
:104CA0002091020330910303209F4001219F900C2B
:104CB000309F900C11242091040330910503FCE3F4
:104CC000BF2EB29EF001B39EF00D1124E80DF91D28
:104CD00020910603309107031CC02091FC02309103
:104CE000FD02209F4001219F900C309F900C1124C9
:104CF0002091FE023091FF02ECE3BE2EB29EF00145
:104D0000B39EF00D1124E80DF91D209100033091A0
:104D100001032E0F3F1F2901612C712C40929D022F
:104D200050929E0260929F027092A0028090670251
:104D300090906802A0906902B0906A0240909D0233
:104D400050909E0260909F027090A002841495047F
:104D5000A604B70410F1298131E0232720936B02C8
:104D600010926702109268021092690210926A0211
:104D700040906302509064026090650270906602F9
:104D8000EFEF4E1A5E0A6E0A7E0A4092630250925C
:104D900064026092650270926602409067025090D1
:104DA00068026090690270906A02FFEF4F1A5F0A12
:104DB0006F0A7F0A4092670250926802609269020D
:104DC00070926A0201CD89288A288B2809F416CDB1
:104DD00010926C0210926B0211CD2B01612C712C80
:104DE00084159505A605B70528F420918002222395
:104DF00009F408CDB0906102B982BB20E9F020919E
:104E0000F0023091F102209F4001219F900C309FD1
:104E1000900C11242091F2023091F302FCE3BF2E9A
:104E2000B29EF001B39EF00D1124E80DF91D209102
:104E3000F4023091F5021CC02091EA023091EB029D
:104E4000209F4001219F900C309F900C11242091B5
:104E5000EC023091ED02ECE3BE2EB29EF001B39E67
:104E6000F00D1124E80DF91D2091EE023091EF02B2
:104E70002E0F3F1F2901612C712C409299025092F4
:104E80009A0260929B0270929C0280905D029090C8
:104E90005E02A0905F02B090600240909902509034
:104EA0009A0260909B0270909C0284149504A60460
:104EB000B70410F1298131E0232720936102109279
:104EC0005D0210925E0210925F02109260024090AA
:104ED000590250905A0260905B0270905C02EFEFB2
:104EE0004E1A5E0A6E0A7E0A4092590250925A0287
:104EF00060925B0270925C0240905D0250905E0294
:104F000060905F0270906002FFEF4F1A5F0A6F0AB5
:104F10007F0A40925D0250925E0260925F02709240
:104F2000600270CC89288A288B2809F485CC1092DD
:104F300062021092610280CC809180028111A2CC29
:104F4000A12CA2CC809180028111A7CCB12CA7CC3E
:104F5000809180028111ACCCC12CACCC80918002BC
:104F60008111B1CCD12CB1CC1092940480E008CD49
:104F7000109233031092320388EE93E0A0E0B0E089
:104F80008093340390933503A0933603B093370393
:104F90002CE131E0309331032093300325EC30E0F5
:104FA00030933D0320933C0324EC30E030933F03E7
:104FB00020933E0320EC30E03093410320934003E4
:104FC00021EC30E0309343032093420322EC30E0A5
:104FD000309345032093440326EC30E0309347039D
:104FE000209346031092490310924A0310924B03F8
:104FF00010924C031092D0031092CF038093D103F0
:105000009093D203A093D303B093D40386E391E0AB
:105010009093CE038093CD031092AE041092AD0412
:1050200080E691E09093AC048093AB041092BB04B3
:105030008FEF8093BA041092B9041092BC048FE3EE
:105040008093B6041092B7041092B8041092B5047D
:105050001092B40484E08093BD0482E08093BE0487
:1050600081E08093BF0480E18093C00480E280935C
:10507000C10480E48093C20480E88093C30440E0CC
:1050800050E063E08BEA94E00E943E1310922A0401
:1050900010922E0410922D0410922F0480E090E0C4
:1050A000FC01E85DFB4F148E10A2178E11A206962C
:1050B0008C339105A9F784E091E090938D0480935F
:1050C0008C0480E091E090938F0480938E0484E0C0
:1050D000809386048093870488E091E09093850410
:1050E000809384048AE090E09093910480939004EC
:1050F00084EF91E09093930480939204109296042D
:1051000010929504109288041092890410928A04D7
:1051100010928B041092940410929A0410929904A5
:1051200088EE93E0A0E0B0E080939B0490939C0411
:10513000A0939D04B0939E0480E28093A30481E039
:105140008093A40426E431E03093290420932804BA
:1051500020E531E030939804209397048093DB039B
:1051600020E038E03093E6032093E5033093E80332
:105170002093E7031092E0038093DF031092E10392
:105180001092E4031092E3031092050410920404B9
:10519000109207041092060481E090E090931904A5
:1051A000809318048CE0E9EEF3E0DF011D928A950C
:1051B000E9F71092250480E791E09093DA03809359
:1051C000D90388E294E090932704809326040895FD
:1051D000AA1BBB1B51E107C0AA1FBB1FA617B7071D
:1051E00010F0A61BB70B881F991F5A95A9F7809539
:1051F0009095BC01CD010895A1E21A2EAA1BBB1BFC
:10520000FD010DC0AA1FBB1FEE1FFF1FA217B30792
:10521000E407F50720F0A21BB30BE40BF50B661FA8
:10522000771F881F991F1A9469F76095709580956C
:1052300090959B01AC01BD01CF0108950E942F29DB
:10524000A59F900DB49F900DA49F800D911D1124DA
:105250000895EE0FFF1F0590F491E02D0994A29F91
:10526000B001B39FC001A39F700D811D1124911D3A
:10527000B29F700D811D1124911D08955058BB27B8
:10528000AA270E9456290C949A2A0E948C2A38F048
:105290000E94932A20F039F49F3F19F426F40C94CD
:1052A000892A0EF4E095E7FB0C94832AE92F0E94EB
:1052B000AB2A58F3BA17620773078407950720F0E3
:1052C00079F4A6F50C94CD2A0EF4E0950B2EBA2FA6
:1052D000A02D0B01B90190010C01CA01A0011124FC
:1052E000FF27591B99F0593F50F4503E68F11A16A8
:1052F000F040A22F232F342F4427585FF3CF469539
:1053000037952795A795F0405395C9F77EF41F165A
:10531000BA0B620B730B840BBAF09150A1F0FF0F24
:10532000BB1F661F771F881FC2F70EC0BA0F621F10
:10533000731F841F48F4879577956795B795F79500
:105340009E3F08F0B0CF9395880F08F09927EE0F95
:105350009795879508950E945F2A08F481E0089543
:105360000E94C4290C949A2A0E94932A58F00E9401
:105370008C2A40F029F45F3F29F00C94832A5111C4
:105380000C94CE2A0C94892A0E94AB2A68F39923A4
:10539000B1F3552391F3951B550BBB27AA27621731
:1053A0007307840738F09F5F5F4F220F331F441F3E
:1053B000AA1FA9F335D00E2E3AF0E0E832D0915072
:1053C0005040E695001CCAF72BD0FE2F29D0660F5F
:1053D000771F881FBB1F261737074807AB07B0E8A2
:1053E00009F0BB0B802DBF01FF2793585F4F3AF0A8
:1053F0009E3F510578F00C94832A0C94CE2A5F3F8F
:10540000E4F3983ED4F3869577956795B795F7952D
:105410009F5FC9F7880F911D9695879597F9089515
:10542000E1E0660F771F881FBB1F621773078407B1
:10543000BA0720F0621B730B840BBA0BEE1F88F7C0
:10544000E0950895E89409C097FB3EF49095809507
:10545000709561957F4F8F4F9F4F9923A9F0F92F3A
:1054600096E9BB279395F695879577956795B795B8
:10547000F111F8CFFAF4BB0F11F460FF1BC06F5F9E
:105480007F4F8F4F9F4F16C0882311F096E911C0B0
:10549000772321F09EE8872F762F05C0662371F0D1
:1054A00096E8862F70E060E02AF09A95660F771FE5
:1054B000881FDAF7880F9695879597F90895990FC1
:1054C0000008550FAA0BE0E8FEEF16161706E807CE
:1054D000F907C0F012161306E407F50798F0621BEF
:1054E000730B840B950B39F40A2661F0232B242BC4
:1054F000252B21F408950A2609F4A140A6958FEFE3
:10550000811D811D089597F99F6780E870E060E034
:1055100008959FEF80EC089500240A94161617064C
:1055200018060906089500240A9412161306140694
:1055300005060895092E0394000C11F4882352F0F7
:10554000BB0F40F4BF2B11F460FF04C06F5F7F4FAF
:105550008F4F9F4F089557FD9058440F551F59F096
:105560005F3F71F04795880F97FB991F61F09F3F50
:1055700079F087950895121613061406551FF2CF79
:105580004695F1DF08C0161617061806991FF1CFC9
:1055900086957105610508940895E894BB276627F0
:1055A0007727CB0197F908950E945F2A08F48FEFBF
:1055B00008950E94EC2A0C949A2A0E948C2A38F0B2
:1055C0000E94932A20F0952311F00C94832A0C94C6
:1055D000892A11240C94CE2A0E94AB2A70F3959F3D
:1055E000C1F3950F50E0551F629FF001729FBB27DA
:1055F000F00DB11D639FAA27F00DB11DAA1F649F76
:105600006627B00DA11D661F829F2227B00DA11D28
:10561000621F739FB00DA11D621F839FA00D611DAE
:10562000221F749F3327A00D611D231F849F600DCF
:10563000211D822F762F6A2F11249F5750409AF0F8
:10564000F1F088234AF0EE0FFF1FBB1F661F771F84
:10565000881F91505040A9F79E3F510580F00C944F
:10566000832A0C94CE2A5F3FE4F3983ED4F38695C8
:1056700077956795B795F795E7959F5FC1F7FE2BEF
:10568000880F911D9695879597F9089581E090E090
:10569000F8940C945D2EDC0101C06D934150504094
:1056A000E0F70895EF920F931F93CF93DF93E801F4
:1056B00047FD02C034E001C034E1E42F440FFF0B8A
:1056C000F7FF03C0F195E195F109E32E022F2E2F8C
:1056D000AE010E94D12BCE01DF91CF911F910F918E
:1056E000EF900895FB01DC0102C005900D9241503E
:1056F0005040D8F70895BB274A3031F4992322F45B
:10570000BDE2909581959F4F0C94B82BBB272A3012
:1057100051F4992342F4BDE290958095709561957E
:105720007F4F8F4F9F4F0C94962BBB27FA01A62FCC
:105730006217710581059105330B30FB66F0AA27CE
:10574000660F771F881F991FAA1FA21710F0A21BB0
:1057500063953850A9F7A05DAA3308F0A95DA1931D
:1057600036F7B111B1931082CA010C94372EBB27C2
:10577000FB015527AA27880F991FAA1FA41710F00D
:10578000A41B83955051B9F7A05DAA3308F0A95D19
:10579000A193009779F7B111B1931192CB010C94B9
:1057A000372E4F925F926F927F929F92AF92BF92ED
:1057B000CF92DF92EF92FF920F931F93CF93DF93DD
:1057C000CDB7DEB729970FB6F894DEBF0FBECDBFB9
:1057D0006A01122FB02E2BE3201720F0FF24F39440
:1057E000F00E02C0BCE3FB2E0F2D27E0AE014F5F91
:1057F0005F4F0E945F2DAC018981982F9970913085
:1058000031F0E1FC06C0E0FE06C090E205C09DE27A
:1058100003C09BE201C090E0EE2DE07183FF3CC02D
:10582000911102C083E001C084E0811718F4212F98
:10583000281B01C020E0E1110BC0F601822F30E2ED
:10584000882319F031938150FBCFC20ED11C20E088
:10585000992329F0D6019C93F60131966F01C60178
:105860000396E2FE0AC03EE4D6013C9341E4119661
:105870004C93119712963C9306C03EE6F601308396
:1058800041E641833283FC01322F40E2332309F4A5
:1058900042C041933150FACF82FF44C0911102C0FF
:1058A00083E001C084E0811718F4212F281B01C078
:1058B00020E0E1110BC0F601822F30E2882319F0BD
:1058C00031938150FBCFC20ED11C20E0992329F0E7
:1058D000D6019C93F60131966F01C6010396E2FE54
:1058E0000BC039E4D6013C933EE411963C931197EA
:1058F00036E412963C9307C039E6F60130833EE663
:10590000318336E63283FC01322F40E2332319F033
:1059100041933150FBCFFC01E20FF11D10828EEF5D
:105920009FEFB7C0F1E0911101C0F0E06F2F70E080
:105930001416150624F49A012F5F3F4F02C021E090
:1059400030E0260F371FBB2029F06B2D70E06F5F12
:105950007F4F02C060E070E0260F371F612F70E0BC
:10596000261737071CF4121B212F01C020E03E2D03
:10597000387159F4D601322F60E2332319F06D9358
:105980003150FBCFC20ED11C20E0FF2331F0D601F5
:105990009C93B6016F5F7F4F6B01E1110BC0F60165
:1059A000922F30E3992319F031939150FBCFC20E1F
:1059B000D11C20E09F2D940F3A81782F7071A72E73
:1059C00084FF03C0313309F49150191624F499303F
:1059D00018F098E001C091E0E42F852F57FF02C036
:1059E000E0E080E06E2F782FE0E0F0E0AEE29A2E6B
:1059F0003A01691A71082A01461A570A0B2D10E05C
:105A00001195019511096F3F8FEF780729F4D601A1
:105A10009C92C60101966C014617570784F06616E2
:105A200077066CF47F01E40CF51CA1E0B0E0AC0F4C
:105A3000BD1FEA0EFB1ED7011196BC9002C090E379
:105A4000B92E615071093196C60101967C0160172B
:105A5000710724F0D601BC926C01D5CF641775078D
:105A600041F4363320F4353321F4A11002C081E330
:105A7000B82EF601B082F701822F90E2882319F048
:105A800091938150FBCFF701E20FF11D108280E06E
:105A900090E029960FB6F894DEBF0FBECDBFDF9120
:105AA000CF911F910F91FF90EF90DF90CF90BF901B
:105AB000AF909F907F906F905F904F9008952830A7
:105AC00008F027E03327DA01990F311D87FD916037
:105AD00000966105710539F432602E5F3D9330E325
